:100000000C9477040C9420070C9494040C9494049E
:100010000C9494040C945D050C9494040C94940436
:100020000C9494040C9494040C9494040C9446053D
:100030000C9494040C9496040C9494040C949404DE
:100040000C9494040C9494040C9494040C949404D0
:100050000C9494040C9494040C9494040C949404C0
:100060000C9494040C94940400010800060400010C
:100070003F0A007374617400436F6C642052462021
:1000800072656D6F74652073776974636820532E91
:100090004E2E20310A002A69646E3F0A002F002F7D
:1000A0003F002F69705F6D6163002F69705F6D6144
:1000B00063002F73657474696E6773002F736574C2
:1000C00074696E6773002F73775F636F6E66002FBE
:1000D0006175746F5F646574656374002F73775F17
:1000E000636F6E66002F73775F636F6E66002F001D
:1000F0002F72657365743F002F200044697361623D
:100100006C65640A0046616C73650A00547275651B
:100110000A003C68323E436F6C642052462073777D
:10012000697463683C2F68323E3C7072653E496E6C
:1001300076616C69642076616C75652E3C68723EF0
:100140003C6120687265663D222E223E5B486F6DE1
:10015000655D3C2F613E00223E5B486F6D655D3CF6
:100160002F613E003C68723E3C6120687265663DCE
:1001700022687474703A2F2F000A4D41433A0900E7
:100180003C68323E436F6C6420524620737769743A
:1001900063683C2F68323E3C7072653E4E657477F2
:1001A0006F726B2073657474696E67732061707011
:1001B0006C696564207375636365737366756C6CD5
:1001C000792E0A0A49503A0900223E3C62723E0AE0
:1001D0003C696E70757420747970653D7375626DDD
:1001E00069742076616C75653D224170706C79226E
:1001F0003E3C2F666F726D3E3C68723E3C612068EB
:100200007265663D222E223E5B486F6D655D3C2F18
:10021000613E093C6120687265663D222E2F69703F
:100220005F6D6163223E5B526566726573685D3C1B
:100230002F613E00223E3C62723E0A4D41433A0924
:100240003C696E70757420747970653D746578745E
:100250002073697A653D3230206E616D653D6D6158
:10026000632076616C75653D22003C68323E436FC9
:100270006C64205246207377697463683C2F68323F
:100280003E0A3C68333E4E6574776F726B2073652F
:100290007474696E67733C2F68333E3C7072653EC0
:1002A0000A3C666F726D20616374696F6E3D2F69E1
:1002B000705F6D6163206D6574686F643D67657420
:1002C0003E49503A093C696E7075742074797065C6
:1002D0003D746578742073697A653D3230206E61B3
:1002E0006D653D69702076616C75653D22000A3C44
:1002F0006D65746120687474702D65717569763DE3
:1003000022726566726573682220636F6E74656E13
:10031000743D2231223E003E3C2F666F726D3E0AD4
:100320003C62723E0A3C68723E3C612068726566BF
:100330003D222E223E5B486F6D655D3C2F613E097C
:100340003C6120687265663D222E2F73775F636F74
:100350006E66223E5B526566726573685D3C2F6116
:100360003E0A0064697361626C65643E3C2F666F8F
:10037000726D3E0A3C62723E427573792E2E2E0AD1
:100380003C68723E5B486F6D655D095B52656672E5
:100390006573685D0A000A3C62723E3C666F726D6E
:1003A00020616374696F6E3D2F73775F636F6E6654
:1003B0002F6175746F5F646574656374206D657417
:1003C000686F643D6765743E3C696E707574207437
:1003D0007970653D7375626D69742076616C7565C1
:1003E0003D224175746F206465746563742220003A
:1003F0002F73775F636F6E66003C68333E53776997
:1004000074636820636F6E66696775726174696F83
:100410006E3C2F68333E0A003C62723E0A3C696EB5
:1004200070757420747970653D7375626D697420A0
:1004300076616C75653D224170706C79223E3C2F6F
:10044000666F726D3E3C68723E3C61206872656604
:100450003D222E223E5B486F6D655D3C2F613E095B
:100460003C6120687265663D222E2F736574746945
:100470006E6773223E5B526566726573685D3C2FE2
:10048000613E00223E206D73203C3D00093C696EB8
:1004900070757420747970653D7465787420736923
:1004A0007A653D35206E616D653D64656C617920CE
:1004B00076616C75653D22003C62723E0A44656C53
:1004C00061793A090900223E206D41203C3D000936
:1004D0003C696E70757420747970653D74657874CC
:1004E0002073697A653D35206E616D653D63757277
:1004F00072656E742076616C75653D22003C627297
:100500003E0A43757272656E743A0900223E206D90
:1005100073203C3D00093C696E70757420747970DD
:10052000653D746578742073697A653D35206E6128
:100530006D653D77696474682076616C75653D22F0
:10054000003C68323E436F6C6420524620737769EA
:100550007463683C2F68323E0A3C68333E50756CC9
:10056000736520706172616D65746572733C2F688C
:10057000333E3C7072653E0A3C666F726D2061636B
:1005800074696F6E3D2F73657474696E6773206D47
:100590006574686F643D6765743E57696474683A52
:1005A000090900223E00330031000A3C6D65746188
:1005B00020687474702D65717569763D2272656668
:1005C000726573682220636F6E74656E743D2200DD
:1005D0000A3C2F7072653E3C68723E4E2E2041628E
:1005E00072616D6F762C20323031362E204261736D
:1005F0006564206F6E203C623E747578677261702E
:10060000686963733C2F623E205443502F49502049
:10061000737461636B2E000A3C62723E3C61206819
:100620007265663D222E2F73657474696E6773223E
:100630003E5B50756C736520706172616D657465A9
:1006400072735D3C2F613E093C6120687265663DB6
:10065000222E2F73775F636F6E66223E5B5377693E
:1006600074636820636F6E66696775726174696F21
:100670006E5D3C2F613E0A3C62723E3C61206872B6
:1006800065663D222E2F69705F6D6163223E5B4976
:100690005020616E64204D41435D3C2F613E093C1A
:1006A0006120687265663D222E223E5B526566724D
:1006B0006573685D3C2F613E0A3C62723E000A3CF5
:1006C00062723E5B50756C736520706172616D651E
:1006D000746572735D095B53776974636820636F37
:1006E0006E66696775726174696F6E5D0A3C6272ED
:1006F0003E5B495020616E64204D41435D095B5271
:100700006566726573685D0A3C62723E4275737914
:100710002E2E2E003E3C2F666F726D3E09006469DE
:100720007361626C656400223E3C696E7075742072
:10073000747970653D7375626D69742076616C754E
:10074000653D22526573657422003C666F726D20B0
:10075000616374696F6E3D2F7265736574206D659A
:1007600074686F643D6765743E3C696E7075742093
:10077000747970653D68696464656E206E616D654D
:100780003D63682076616C75653D22000A3C6272AB
:100790003E202009002F000A003C7374796C653EEE
:1007A000666F726D7B646973706C61793A20696EF3
:1007B0006C696E652D626C6F636B3B7D3C2F73744F
:1007C000796C653E0A0009202020200031223E5B22
:1007D000785D3C2F613E0030223E5B4F4E5D3C2FEA
:1007E000613E00266163743D002663683D003F70F2
:1007F0006F733D00093C6120687265663D222E00E2
:10080000092020202000095B785D00095B4F4E5DC8
:10081000000A2000094368003C7072653E202020D9
:10082000003C68323E436F6C642052462073776907
:100830007463683C2F68323E000D0A436F6E746526
:100840006E742D547970653A20746578742F6874CD
:100850006D6C0D0A507261676D613A206E6F2D6389
:10086000616368650D0A0D0A333031204D6F76657E
:1008700064205065726D616E656E746C793C2F6892
:10088000313E0A00485454502F312E30203330313D
:10089000204D6F766564205065726D616E656E7473
:1008A0006C790D0A4C6F636174696F6E3A20004871
:1008B0005454502F312E3020323030204F4B0D0AFF
:1008C000436F6E74656E742D547970653A2074654B
:1008D00078742F68746D6C0D0A507261676D613A9F
:1008E000206E6F2D63616368650D0A0D0A00112487
:1008F0001FBECFEFD8E0DEBFCDBF11E0A0E0B1E07A
:10090000E8E1F3E302C005900D92AE32B107D9F7EA
:1009100017E0AEE2B1E001C01D92A734B107E1F7E4
:100920000E94250D0C948A190C9400001F920F92BE
:100930000FB60F9211248F939F93AF93BF93809123
:100940002E0190912F01A0913001B0913101815081
:100950009040AF4FBF4F80932E0190932F01A093F3
:100960003001B0933101BF91AF919F918F910F9062
:100970000FBE0F901F901895E1E8F0E08081856030
:100980008083EFE6F0E0808181608083089580912C
:100990002E0190912F01A0913001B0913101209151
:1009A00084003091850040E050E0280F391F4A1F35
:1009B0005B1FB901CA010895EF92FF920F931F9335
:1009C0007B018C010E94C7046E157F05800791078B
:1009D00048F4E094F09400951095E60EF71E081F79
:1009E000191F08C09B01AC012E193F09400B510B88
:1009F00079018A01B701C8011F910F91FF90EF9013
:100A00000895CF92DF92EF92FF920F931F938B0185
:100A10009C01442391F1E42FF0E08FEF9FEFDC0184
:100A2000042E04C0880F991FAA1FBB1F0A94D2F777
:100A300080959095A095B09580239123A223B32310
:100A4000319761E070E002C0660F771FEA95E2F728
:100A50006B01EE24D7FCE094FE2C04C0369527955C
:100A6000179507954A95D2F7C816D906EA06FB06E8
:100A700020F40F5F1F4F2F4F3F4FB801C9011F9147
:100A80000F91FF90EF90DF90CF9008951F920F92FB
:100A90000FB60F9211248F93EF93FF93419A4198D1
:100AA000EFE6F0E080818D7F8083FF91EF918F9161
:100AB0000F900FBE0F901F9018951F920F920FB6B8
:100AC0000F9211248F9381E080932C078F910F90C8
:100AD0000FBE0F901F90189580E190E00E94301992
:100AE00090913107980F9093B40008958DE297E0AC
:100AF00060E070E04CE050E00E9420198CE090E053
:100B00000E94381990932B0780932A078EE090E07B
:100B10000E94381990933C0780933B07089587E023
:100B200087B9539AE0EBF0E0808183608083808115
:100B3000806280831092B400E1EBF0E080818160FC
:100B40008083E9E6F0E0808182608083E89AEDE6C8
:100B5000F0E08081806180830E9476050E946C05B0
:100B600008958DE297E060E070E04CE050E00E9474
:100B70003E1960912A0770912B078CE090E00E944B
:100B8000601960913B0770913C078EE090E00E94F5
:100B900060190895660F9CE0899F802D1124680FCD
:100BA000442311F0409801C0409A429A429887E14C
:100BB00090E070E09B012F5F3F4F8617970711F47D
:100BC000442319F48217930711F4409A01C0409806
:100BD000429A429801975FEF8F3F950771F7109205
:100BE0002C07DA9A80916800846080936800809175
:100BF00084009091850020912D0730912E07820F5F
:100C0000931F9093890080938800419A419880E0D7
:100C10004098429A42988F5F8931D1F782E086BB33
:100C200080916F00826080936F0080916F0081FDE2
:100C3000FCCF809168008B7F8093680080912C07A7
:100C40000895FF920F931F93CF93DF93F82EA091F7
:100C50003907B0913A0720912A0730912B0790E08D
:100C600080E0E1E0F0E051C0462F490FEF0102C003
:100C7000CC0FDD1F4A95E2F7AE014A235B234115F5
:100C8000510591F08E01022313230115110561F422
:100C900041E00E94CA058823D1F180912A079091F2
:100CA0002B078C2B9D2B16C08E01022313230115BD
:100CB000110519F14115510501F540E00E94CA05E1
:100CC000882371F0C095D09580912A0790912B07C9
:100CD0008C239D2390932B0780932A0781E01AC0D1
:100CE000FF20A9F08091390790913A078C2B9D2B1A
:100CF00090933A07809339070AC06F5F663009F016
:100D0000B3CF8F5F9A5F823021F060E0ADCF80E09B
:100D100001C082E0DF91CF911F910F91FF90089564
:100D2000CF93DF93EC01662361F00E94C7046093C8
:100D30003201709333018093340190933501E1E0E7
:100D400014C060913201709133018091340190910F
:100D500035010E94DC049E0140E050E0E1E06217B2
:100D600073078407950708F4E0E08E2FDF91CF9199
:100D700008950F93FC01862F880F860F880F480F68
:100D8000A081B1812223E9F021E030E002C0220FEE
:100D9000331F4A95E2F7A22BB32BB183A083002324
:100DA000E9F086E0689FB00111248FE390E002C073
:100DB000880F991F6A95E2F780959095822B932B67
:100DC00009C081E090E002C0880F991F4A95E2F7C0
:100DD000809590958A239B23918380830F9108951A
:100DE000FC0186E0689FB00111248FE390E002C00F
:100DF000880F991F6A95E2F780959095208131813F
:100E000028233923318320830895EF92FF920F9393
:100E10001F930E94C7047B018C01C801B7010E9487
:100E2000DC04603223E0720720E0820720E09207B2
:100E3000A0F74A9BEECF1F910F91FF90EF9008957E
:100E40001F920F920FB60F9211242F933F934F933F
:100E50005F936F937F938F939F93AF93BF93EF9322
:100E6000FF930E94B1050E940507FF91EF91BF918A
:100E7000AF919F918F917F916F915F914F913F9132
:100E80002F910F900FBE0F901F9018952A98962FB4
:100E90009F71982B9EBD0DB407FEFDCF1EBC0DB4F7
:100EA00007FEFDCF67FF04C01EBC0DB407FEFDCFDB
:100EB0002A9A8EB508952A986F71682B6EBD0DB46D
:100EC00007FEFDCF4EBD0DB407FEFDCF2A9A089553
:100ED0002A982AE32EBD0DB407FEFDCFFB019C012D
:100EE00008C0215030401EBC0DB407FEFDCF4EB5EA
:100EF000419321153105A9F7860F971FFC01108238
:100F00002A9A0895FB012A982AE72EBD0DB407FE00
:100F1000FDCF06C0019721912EBD0DB407FEFDCF78
:100F20000097C1F72A9A08951F93CF93DF93182F44
:100F3000C82FD0E0C076D0702091380130E0C217C1
:100F4000D30791F080EA6FE143E00E945B07AE01B6
:100F500085E0559547958A95E1F780E86FE10E9415
:100F60005B07107610933801DF91CF911F910895A0
:100F7000DF93CF930F92CDB7DEB7682F69830E94BE
:100F8000940780E069810E9446070F90CF91DF911E
:100F900008951F93DF93CF930F92CDB7DEB7182F2D
:100FA00069830E94940780E4612F49810E945B0756
:100FB0000F90CF91DF911F9108951F93682F84EDBB
:100FC0000E94C90782ED61E00E94C9078AEE0E9473
:100FD000B80780FDFBCF82ED60E00E94C90789ED74
:100FE0000E94B807182F88ED0E94B807512F40E0E3
:100FF000282F30E0242B352BC9011F9108951F9312
:10100000DF93CF930F92CDB7DEB7982F162F84EDD5
:10101000692F79830E94C90786ED612F0E94C90755
:1010200087ED7981672F0E94C90718E203C0812FDD
:101030008A95F1F78AEE0E94B80780FDF8CF0F90ED
:10104000CF91DF911F910895682F677085E70E9407
:10105000C9070895CF93DF93EC0184EE68810E9465
:10106000C90785EE69810E94C90782EE6A810E94E4
:10107000C90783EE6B810E94C90780EE6C810E94D4
:10108000C90781EE6D810E94C907DF91CF91089554
:10109000CF93DF93EC01229A2A9A84B1886284B9B3
:1010A00024982B982D9880E58CBD8DB581608DBDE1
:1010B0008DB582608DBD8FEF60E04FEF0E945B07C2
:1010C00080E090E00197F1F710923701109236011D
:1010D00088E060E00E94C90789E060E00E94C907DB
:1010E0008CE060E00E94C9078DE060E00E94C907C3
:1010F0008AE06FEF0E94C9078BE069E10E94C9078F
:1011000084E060E00E94C90785E06AE10E94C907A7
:1011100086E06FEF0E94C90787E06FE10E94C90770
:1011200088E360EB0E94C90788E26FE30E94C90769
:1011300089E260E30E94C90780E369EF0E94C90762
:1011400081E367EF0E94C90780EC6DE00E94C90748
:1011500081EC60E00E94C90780E862EC42E30E94F3
:101160005B0786EC62E10E94C90787EC6CE00E9495
:10117000C90784EC62E10E94C9078AEC6CED0E9409
:10118000C9078BEC65E00E94C907CE010E942A08BE
:1011900080E160E071E00E94FF078FE10E94940708
:1011A00080E86BE140EC0E945B0780E86FE144E07F
:1011B0000E945B07DF91CF91089582E70E94B807F4
:1011C000863008F08F5F089581E10E94DD0721E0FD
:1011D00092FF20E0822F08950F931F93CF93DF9308
:1011E000EC018B0180E06FE10E94460783FDFACF9E
:1011F0008CE10E94B80781FF13C080E86FE140E8EE
:101200000E945B0780EA6FE140E80E945B0780EA8A
:101210006CE142E00E945B0780E395E70197F1F7FC
:1012200082E060E00E94C90783E06AE10E94C9078A
:1012300086E06C2F0E94C9079E012050364E87E041
:10124000632F0E94C9078AE760E040E00E945B07C5
:10125000CE01B8010E94820780E86FE148E00E9459
:101260005B07DF91CF911F910F91089589E30E9451
:10127000B80791E0882309F490E0892F08958F92B0
:101280009F92AF92BF92CF92DF92EF92FF920F9315
:101290001F93CF93DF936C015B0189E30E94B80732
:1012A000882309F46FC0C0913601D091370180E0E6
:1012B0006C2F0E94C9076D2F772767FD7A9581E013
:1012C0000E94C9078AE360E00E944607082F8AE36C
:1012D00060E00E944607382F20E010E0022B132B1D
:1012E00010933701009336018AE360E00E944607BD
:1012F000882E8AE360E00E944607982E8AE360E029
:101300000E944607E82EFF248AE360E00E94460719
:10131000382F20E0E22AF32AE7FE13C0C82DD0E0E0
:10132000392D20E0C22BD32B0894C108D108249773
:10133000CC16DD0608F4E601CE01B5010E9468076F
:1013400002C0C0E0D0E02AE1013012073CF08CE09E
:101350006FEF0E94C9078DE069E10CC0602F6150FA
:101360008CE00E94C90701501040612F772767FD6C
:101370007A958DE00E94C90780E86EE140E40E9402
:101380005B0702C0C0E0D0E0CE01DF91CF911F919A
:101390000F91FF90EF90DF90CF90BF90AF909F9014
:1013A0008F900895CF92DF92EF92FF920F931F9349
:1013B000CF93DF936C01413041F4CB010897A0E05B
:1013C000B0E04196A11DB11D0DC0423041F4CB01EA
:1013D0000897A0E0B0E00696A11DB11D03C080E013
:1013E00090E0DC01EB01F60116C0E080FF2400E094
:1013F00010E0102F0F2DFE2CEE24218130E040E074
:1014000050E0E22AF32A042B152B8E0D9F1DA01FFE
:10141000B11F32962297C230D10538F7FB01EE7F1B
:10142000EC0DFD1D60FF0FC0208130E040E050E07A
:10143000542F432F322F222702C0A070B070820F8A
:10144000931FA41FB51F9D01442755272115310562
:101450004105510591F79C0120953095C901DF9117
:10146000CF911F910F91FF90EF90DF90CF90089553
:10147000009741F0A2E4B1E0FC0186E001900D92FA
:101480008150E1F70895DC015A96862F972FFC01D1
:1014900080E02D919191291729F48F5F8430C9F74D
:1014A00081E0089580E00895FC016932710598F0AB
:1014B0008485883081F48585863069F4B696AEE3FC
:1014C000B1E091918D91981741F481E0A234B80771
:1014D000C1F781E0089580E0089580E00895FC015F
:1014E0006A327105B0F08485883099F48585882347
:1014F00081F48685853469F47E96AEE3B1E09191FE
:101500008D91981741F481E0A234B807C1F781E0CA
:10151000089580E0089580E00895E82FF92FA2E46F
:10152000B1E0868181938D91858381E0A834B807ED
:10153000C1F70895CF93DF93EC01188E198E80E4E4
:101540008C8B1D8A8E8BCE010E9664E170E040E09C
:101550000E94D209988F898FDF91CF910895AEE3D1
:10156000B1E0FC017A96208124832D91219321E022
:10157000A234B207C1F70E949A0A0895FC01BA96F4
:1015800084E09291690F711D94816483442311F06A
:10159000908301C01082815019F0672F7727F1CF17
:1015A0000895CF93DF93EC018CA19AA19CA38AA309
:1015B0008DA19BA19DA38BA3CE010E94BE0A1AAA56
:1015C0001BAA80E58EA7DF91CF910895CF93DF937B
:1015D000EC010E948D0A1C8A82E08D8BA2E4B1E0AE
:1015E000FE017696808182878D91819381E0A83477
:1015F000B807C1F7AEE3B1E0FE017C968081828737
:101600008D91819381E0A234B807C1F78AE290E01E
:10161000BE010E94EC08DF91CF9108950F931F93B4
:10162000CF93DF93EC018B010E948D0ACE010E94C3
:10163000AF0A1AA28CA1883F18F08DA18F5F8DA3ED
:101640008CA1885F8CA3C801BE010E94EC08DF91C9
:10165000CF911F910F910895FC01218930E090896D
:1016600080E0282B392B86A582958F7090E0880F1B
:10167000991F880F991F281B390B2451304037FFC1
:1016800002C020E030E0C9010895DB01D696A80F22
:10169000B91F03C0ED936F5F7F4FFA014F5F5F4F3C
:1016A000E491EE23B9F7CB010895DA01FB01F69638
:1016B000E80FF91F822F03C09D91919381508823D9
:1016C000D9F7620F711DCB010895DA010D9000204A
:1016D000E9F79D0121503040241B350B0E94550B2A
:1016E00008950F931F93DF93CF9300D00F92CDB740
:1016F000DEB78C014B8369837A830E948D0A4B810C
:10170000842F8061F80187A769817A81443029F0AC
:101710006115710511F461E070E0C80141E00E94BB
:10172000D10AF801108A88E2818BC8010E94AF0AB1
:1017300084E0F80180AB11AAC8014A966CE170E020
:1017400042E00E94D209F80192AB83AB86E390E0BD
:10175000B8010E94EC080F900F900F90CF91DF918D
:101760001F910F9108950F931F93CF93DF93EC0177
:101770008B01CB018896988B898BCE010E949A0AA7
:101780001AAA1BAAB801645E7F4FCE014A9642E0B6
:101790000E94D2099AAB8BABC801C696BE010E94CB
:1017A000EC08DF91CF911F910F910895611571059C
:1017B00049F0DB01EEE3F1E02D91219321E0E234E9
:1017C000F207D1F7009711F00E94380A089590931C
:1017D0003B01809300010895CF93DF93EC010E94B9
:1017E0008D0A188A8CE2898BCE010E94AF0A82E1B1
:1017F0008FA7CE0161E070E040E00E94D10A1EA2F6
:101800001FA28091010188A719A68D5F8093010115
:1018100082E08EAB84E08FAB85E088AF19AE80E6C6
:101820008EA78AE088AB19AACE014A9660E270E0E2
:1018300042E00E94D2099AAB8BAB8AE390E0BE01F2
:101840000E94EC08DF91CF910895FF920F931F93B0
:10185000CF93DF93EC018B01F42E60913C017091EA
:101860003D0140E00E94710BFF2011F089E101C0B1
:1018700088E18FA7CE01B8010E94B30BDF91CF9111
:101880001F910F91FF90089590933A018093390131
:101890000895FF920F931F93CF93DF93EC018B0179
:1018A0000E94540A882341F08D89813009F051C08B
:1018B000CE010E94E60A4DC0CE01B8010E946F0A17
:1018C000882309F446C08F89813089F48AA1883041
:1018D00071F4E0913901F0913A01309719F0CE019D
:1018E0004A960995CE01B8010E940E0B32C09CA108
:1018F00080913B01981769F59DA18091000198178F
:1019000041F5FFA4F1FE04C0CE010E94EC0B21C002
:10191000F4FE1FC0CE010E942C0B90933D018093DA
:101920003C01009749F4F0FE14C0CE0160E070E085
:1019300040E00E94710B0DC02EA522952F7030E063
:10194000220F331F220F331F2E5D3F4F0217130745
:1019500010F420E030E0C901DF91CF911F910F9189
:10196000FF900895CF93DF93C1E4D7E0CE010E94AA
:101970002A08CE016DE377E00E94D60BDF91CF916C
:101980000895EF92FF920F931F9378018901FC0154
:10199000808170E090E08095909586239723209138
:1019A00025078617970781F5222369F440932507B9
:1019B0000E94C70460932607709327078093280727
:1019C000909329073AC02417C1F50E94C7042091BB
:1019D0002607309127074091280750912907621B5D
:1019E000730B840B950B6E157F058007910728F10B
:1019F0000E94C704609326077093270780932807E7
:101A00009093290782E01CC02417C9F40E94C704E0
:101A100020912607309127074091280750912907E8
:101A2000621B730B840B950B6E157F058007910766
:101A300030F01092250783E003C081E001C080E010
:101A40001F910F91FF90EF900895DF92EF92FF9218
:101A50000F931F93CF93DF93F8940E94BC040E94CE
:101A6000050700E0802F8A95F1F78DE397E06BE1A1
:101A700070E044E050E00E94201981E497E06FE1BB
:101A800070E046E050E00E94201981E497E00E9457
:101A9000480882E00E9424080A95F1F784E166E78D
:101AA00074E00E94FF0781E497E06DE377E00E9415
:101AB000D60B80E590E00E94E70B2098289A0E94C0
:101AC0008F057894DD24EE24FF2483E290E061E02A
:101AD00041E00DE81BE520E030E00E94C10C8230BF
:101AE00029F5DD2029F58DE397E067E170E044E01A
:101AF00050E00E94201981E497E061E170E046E047
:101B000050E00E9420198DE397E06BE170E044E023
:101B100050E00E943E1981E497E06FE170E046E0FA
:101B200050E00E943E190E94B20C02C0DD2081F0FC
:101B300083E290E061E041E001E010E020E030E08D
:101B40000E94C10C882319F0DD24D39401C0DD2448
:101B50008F2D813021F0833011F08230A1F58F2D4F
:101B60008250823010F481E001C080E00E942106A2
:101B7000813081F0813018F0823029F511C0EF2DCD
:101B8000E13041F480912A0790912B0790933A0716
:101B90008093390780E090E061E00E94900616C0D3
:101BA000FF2DF23009F0EAC180912A0790912B07AE
:101BB0008095909590933C0780933B0710922B075C
:101BC00010922A07DBC18F2D843069F480912F0792
:101BD0009091300760E00E949006882319F444E059
:101BE000F42E01C0FE2C8CED95E068E471E00E94BB
:101BF0003F09BC011092240788E491E00E94490C3F
:101C00008C01009709F461CFEC01C85BDE4F82E0E4
:101C100091E0BE0144E050E00E94E918009709F00D
:101C200033C1E801C45BDE4FCE0168EF70E042E0F3
:101C300050E00E94D418009761F4FF2021F088E45E
:101C400091E061E003C088E491E060E00E94191433
:101C500016C1CE0160EF70E047E050E00E94D4185A
:101C6000009781F4FF2049F4CE010E9427158823B4
:101C700021F033E0E32E23E0F22E88E491E06EEED3
:101C800070E0FBC0CE0165EE70E048E050E00E94DD
:101C9000D418009709F040C0C8018C5A9E4FFC012F
:101CA00020812032A9F4FE2DF23021F488E491E065
:101CB00061E00CC0FF2039F488E491E060E040E08E
:101CC0000E940517DCC088E491E060E041E0F8CFB5
:101CD0002F3369F4FF2031F4CE016BE377E040E06D
:101CE0000E94CB1488E491E06CED70E0C6C06FEC0C
:101CF00070E04BE050E00E94D418009769F4FF2098
:101D000031F40E944C1792E0E92E82E0F82E88E42C
:101D100091E066EC70E0B1C0CE016CEB70E049E0A0
:101D200050E00E94D4180097D9F4F801E85BFE4F08
:101D30008585803229F488E491E00E9479159FC05E
:101D40008F3371F4FF2039F4CE010E943B168823B3
:101D500011F40E946C0588E491E062EB70E08DC0A4
:101D6000CE016AEA70E047E050E00E94D418009784
:101D700009F047C0F801E85BFE4F8385803249F4E3
:101D800088E491E061E477E04DE357E00E94681752
:101D900076C08F33B1F5FF2079F5CE0161E477E0AD
:101DA0004DE357E00E94C417882309F18DE397E0C3
:101DB0006BE170E044E050E00E943E1981E497E05E
:101DC0006FE170E046E050E00E943E1988E491E047
:101DD00061E477E04DE357E00E941818BC0188E405
:101DE00091E041E00E94250C0E94B20C6ECE88E486
:101DF00091E00E94891843C088E491E062EA70E0B3
:101E00003CC0FF20B1F5CE016FE970E042E050E048
:101E10000E94D418009769F580912A0790912B07AA
:101E200090933A0780933907CE0169E377E041E068
:101E30000E94CB14882371F08091390790913A0762
:101E400020913B0730913C078223932390933A07DC
:101E5000809339072091390730913A0780912A07FA
:101E600090912B072817390721F0EE24E394FF24E3
:101E7000F39488E491E06DE970E00E94CD12BC011A
:101E800088E491E041E077C0CE016AE04FEF0E9424
:101E9000F5118F3F09F419CECE0166E970E046E0F6
:101EA00050E00E94D418009749F488E491E060E083
:101EB00070E048E750E00E94450B59C0CE0163E74F
:101EC00070E044E050E00E94D418009709F04BC045
:101ED000E801C45BDE4FCE0160E770E042E050E015
:101EE0000E94D418882339F488E491E06AE277E00C
:101EF0000E940A103CC088818032A9F580912A078F
:101F000090912B0790933A0780933907C801835B20
:101F10009E4F69E377E00E94D60F882321F18091DC
:101F20003B0790913C072091390730913A07822373
:101F3000932390933A078093390720912A07309191
:101F40002B078217930751F088E491E00E94C10F9C
:101F5000BC01EE24E394FF24F3940AC088E491E0EA
:101F60000E94CF0F04C088E491E00E94C80FBC011A
:101F700088E491E040E00E94250CA7CDEE24FF24E8
:101F800032CE60E070E04CE051E00E94450B0895D5
:101F900060E070E045E051E00E94450B089560E08C
:101FA00070E04BEF50E00E94450B0895EF92FF92D6
:101FB0000F93DF93CF9300D0CDB7DEB77B016CE2F8
:101FC000AE014F5F5F4F2AE002E00E94201188239C
:101FD000C1F02981622F6150623098F48A81482FC4
:101FE0004150463030F4C70121E001E00E94B906BB
:101FF00006C0882331F4C701622F0E94F00681E0F9
:1020000001C080E00F900F90CF91DF910F91FF9072
:10201000EF9008952F923F924F925F926F927F922E
:102020008F929F92AF92BF92CF92DF92EF92FF92E8
:102030000F931F93DF93CF93CDB7DEB72D970FB6D6
:10204000F894DEBF0FBECDBF1C012B01882499245C
:10205000CC24DD24BB248E010F5F1F4F26E0E22E2F
:10206000F12CEC0EFD1E9CE2A92E81E0682E712C55
:102070000894C11CD11CC601B8014AE050E00E947E
:10208000F718C7018B0D911DB8010E94E218F801E5
:1020900001900020E9F73197E01BF10BBE0ED7014C
:1020A000AB0DB11DAC92B394F201608171819401CA
:1020B00080E0A301022E02C0440F551F0A94E2F7EC
:1020C000462357238F5F4115510529F42F5F3F4F5A
:1020D000863079F780E090E0B8014AE050E00E9455
:1020E000F718C7018B0D911DB8010E94E218F80185
:1020F00001900020E9F73197E01BF10BBE0ED701EC
:10210000AB0DB11DAC92B39486E090E0880E991EA1
:1021100092E0C916D10409F0ABCFFE01EB0DF11D21
:102120001582C10160E070E0A7010E94650B2D9649
:102130000FB6F894DEBF0FBECDBFCF91DF911F91D8
:102140000F91FF90EF90DF90CF90BF90AF909F9056
:102150008F907F906F905F904F903F902F90089559
:10216000FB01982F9F70292F205D2183282F30E0BD
:102170002F7030702A30310514F0995A918382956E
:102180008F70982F905D90838A3010F0895A8083E9
:1021900012820895982F80538A3050F081538630F0
:1021A00020F0892F8154863010F4865F089580E0F6
:1021B0000895CF92DF92EF92FF920F931F93CF93E8
:1021C000DF93DC010D900020E9F71197CA2EC81AA1
:1021D0007C01EC0CF11C01E010E0C0E0D0E0DD245B
:1021E00015C0F70182917F010E94CA1090E0809F84
:1021F0009001819F300D909F300D1124C20FD31F8D
:1022000084E0000F111F8A95E1F7D394DC1448F3A2
:10221000CE01DF91CF911F910F91FF90EF90DF9052
:10222000CF900895282F392FF90103C080538A30A9
:1022300028F481918823D1F781E0089580E0089502
:10224000AF92BF92CF92DF92EF92FF920F931F93C4
:10225000DF93CF9300D000D00F92CDB7DEB7B62E6C
:102260006A01E82EF92EF70130E080E09191492FC4
:102270004053423068F04A3010F4223049F4492F7C
:102280004154463018F04052463080F4203171F409
:102290008F5F823058F3223009F452C0843008F046
:1022A0004FC0833019F7203109F74AC09B1539F424
:1022B0003F5F301708F044C08823B9F641C0992326
:1022C00011F09A30E9F58823D9F13F5F3017C1F555
:1022D000AA2480E08E010F5F1F4FF70191917F01CB
:1022E0009B1521F0992311F09A3021F5F801E80FA0
:1022F000F11D1082203149F4C8012D830E94D910AC
:10230000482F592FCA012D8109C0C8012D830E9471
:10231000B6182D818F3F910509F094F4F601EA0D6E
:10232000F11D8083F701319780818B1559F4A394B7
:1023300080E0D3CFF801E80FF11D90838F5FCDCF00
:1023400080E001C081E00F900F900F900F900F90F0
:10235000CF91DF911F910F91FF90EF90DF90CF9081
:10236000BF90AF900895AF92BF92CF92DF92EF925D
:10237000FF920F931F93DF93CF930F92CDB7DEB7EA
:102380005C01162FC42EE62EF72EDD2419C0B501F0
:102390006D0D711DF70181917F0190E0402F50E09C
:1023A00029830E94F718298101C0D394F501ED0D0E
:1023B000F11D80818823C9F7222311F02083D39453
:1023C0008E2D811B8C1518F3DA94F501ED0DF11D9E
:1023D00010820F90CF91DF911F910F91FF90EF909E
:1023E000DF90CF90BF90AF900895E82FF92F80E055
:1023F00090E050E008C0322F31543A3110F4205EA2
:102400002083019631962081261719F084179507AD
:1024100094F30895CF93DF93FC01D90190E01AC0A3
:102420005C91851791F4A217B30739F4EF01219756
:1024300088818F3311F0863261F411968C91882354
:1024400041F4319680818D3311F0D90102C0D90158
:1024500091E031968081882331F0803221F08D30F7
:1024600011F09923E9F29130B9F4A62FB72F50E07B
:102470004150504001C02D938A2F861B2191222369
:1024800051F0203241F02D3031F0263221F090E031
:102490008417950784F31C9281E0DF91CF91089512
:1024A000DF92EF92FF920F931F93CF93DF93EC0194
:1024B0008C011DC09B32B1F09532A9F47E010894C5
:1024C000E11CF11CE7012196F70180810E94CA10EE
:1024D000D82EF70181810E94CA109D2D9295907F80
:1024E000982B01C090E2F80191938F012196988179
:1024F000992301F7F8011082DF91CF911F910F917D
:10250000FF90EF90DF900895AF92BF92CF92DF924D
:10251000EF92FF920F931F93DF93CF930F92CDB75C
:10252000DEB75C01162FC42EE62EF72EDD2419C06F
:10253000B5016D0D711DF70181917F0190E0402F74
:1025400050E029830E94F718298101C0D394F50136
:10255000ED0DF11D80818823C9F7222311F020831E
:10256000D3948E2D811B8C1518F3DA94F501ED0DA3
:10257000F11D10820F90CF91DF911F910F91FF906D
:10258000EF90DF90CF90BF90AF90089560E070E043
:102590004FEA58E00E94450B08950F931F93CF9385
:1025A000DF93EC018B0160E070E044E858E00E94AA
:1025B000450BBC01CE01A8010E94450BBC01CE0118
:1025C00049E358E00E94450BDF91CF911F910F9195
:1025D000089541E258E00E94450B08952F923F92E2
:1025E0004F925F926F927F928F929F92AF92BF9223
:1025F000CF92DF92EF92FF920F931F93DF93CF93CF
:10260000CDB7DEB72F970FB6F894DEBF0FBECDBFA4
:102610006C015C874B873A8729871E870D873E2C84
:1026200048E158E00E94450B7C0100E010E05E01AB
:102630000894A11CB11C0F5F1F4FC801B5014AE0EF
:1026400050E00E94F718C601B70144E158E00E942B
:10265000450BBC01F50101900020E9F79F012150D5
:1026600030402A193B09C601A5010E94550B7C0187
:102670000230110501F7882499248E010F5F1F4F46
:10268000BC0101C04301C60141E158E00E94450B75
:102690007C0134010894611C711C262C7F86C301C7
:1026A000B8014AE050E00E94F718F80101900020BC
:1026B000E9F79F0121503040201B310BC601B701C3
:1026C000A8010E94550BBC01AA24BB2481E0E82E7E
:1026D000F12C082C02C0EE0CFF1C0A94E2F72D85A9
:1026E0003E852E213F213320B1F02115310579F0AF
:1026F00089859A85E822F922E114F10421F0C601C6
:102700004BE058E068C0C60146E058E064C0C6012E
:1027100040E058E060C02115310509F459C0C601F8
:1027200044EF57E00E94450BBC01C6014B855C8518
:102730000E94450BBC01C6014EEE57E00E94450BBE
:102740002C01822D9F85B8014AE050E00E94F718C5
:10275000F80101900020E9F79F0121503040201B33
:10276000310BC601B201A8010E94550BBC01C60184
:1027700049EE57E00E94450B2C01C5010196B801B6
:102780004AE050E00E94F718F80101900020E9F7B4
:102790009F0121503040201B310BC601B201A8011E
:1027A0000E94550BBC01C60143EE57E00E94450B49
:1027B000BC0189859A85E822F922E114F10421F00F
:1027C000C60147ED57E007C0C6014CEC57E003C017
:1027D000C60146EC57E00E94450BBC010894A11CC1
:1027E000B11CE6E0F0E08E0E9F1EF2E0AF16B104E1
:1027F00009F06CCF86E06816710409F043CFCB0175
:102800002F960FB6F894DEBF0FBECDBFCF91DF91EC
:102810001F910F91FF90EF90DF90CF90BF90AF90FE
:102820009F908F907F906F905F904F903F902F90F0
:1028300008958F929F92BF92CF92DF92EF92FF9274
:102840000F931F93DF93CF93CDB7DEB728970FB6C3
:10285000F894DEBF0FBECDBF6C01B62E0E94C6122B
:10286000BC01C60149E957E00E94450BBC01C60105
:102870000E94E912BC01C60147E957E00E94450BDE
:10288000BC0120912A0730912B0700913B07109142
:102890003C07C60145E957E0EB2C0E94EE12BC0153
:1028A000C6014CE857E00E94450BBC0100E010E077
:1028B0007E010894E11CF11CC6014AE457E00E9425
:1028C000450B4C010F5F1F4FC801B7014AE050E0B4
:1028D0000E94F718F70101900020E9F79F012150AD
:1028E00030402E193F09C601B401A7010E94550BC3
:1028F000BC01C60147E257E00E94450BBC01BB206A
:1029000031F0C6014EE157E00E94450BBC01C60103
:1029100044E157E00E94450BBC010230110561F60D
:10292000BB2021F0C6014EEB56E003C0C60147E1D3
:1029300056E00E94450BBC01C60140ED55E00E94E7
:10294000450BBC01C6014AEA55E00E94450BBC019B
:10295000BB2021F0C60148EA55E003C0C60146EAA3
:1029600055E00E94450BBC01C60143EA55E00E94B8
:10297000450B28960FB6F894DEBF0FBECDBFCF91A2
:10298000DF911F910F91FF90EF90DF90CF90BF905C
:102990009F908F9008958F929F92BF92CF92DF92D7
:1029A000EF92FF920F931F93DF93CF9300D00F927C
:1029B000CDB7DEB76C014B01042F7E010894E11CFA
:1029C000F11CB70143E027E031E00E940A1288239E
:1029D00071F1C7010E94B618182F1150123038F546
:1029E000C601B70143E02AE031E00E940A128823C1
:1029F000F1F0C7010E94B618B82EBA948B2D86301C
:102A0000B0F4C601B70143E02EE031E00E940A12A3
:102A1000882369F0C7010E94B618282F823038F445
:102A2000C401612F4B2D0E94B90681E001C080E0F6
:102A30000F900F900F90CF91DF911F910F91FF900A
:102A4000EF90DF90CF90BF909F908F9008950F935D
:102A50001F93DF93CF9300D00F92CDB7DEB78E01D7
:102A60000F5F1F4FB80143E027E031E00E940A12D8
:102A70008823B1F1C8010E94B6188150823080F5D8
:102A800020912A0730912B07A901982F990F980FB1
:102A9000990F892F90E0DC011696E1E0F0E0BF018C
:102AA000082E02C0660F771F0A94E2F7462B572BB9
:102AB000609570952623372301968A179B0779F72F
:102AC00030933A072093390780913B0790913C0758
:102AD0008423952390932B0780932A0781E001C0DC
:102AE00080E00F900F900F90CF91DF911F910F9189
:102AF0000895CF92DF92EF92FF920F931F93DF938F
:102B0000CF9300D000D000D0CDB7DEB78C010E94AB
:102B1000C612BC01C80141E455E00E94450B6C019E
:102B200080913307909134077E010894E11CF11CD9
:102B3000B7014AE050E00E94F718C801B601A701AA
:102B40000E94650BBC01C80145E155E00E94450BA0
:102B5000BC01C801A7010E94650BBC01C8014CE083
:102B600055E00E94450B6C0184EF91E0B7014AE00B
:102B700050E00E94F718C801B601A7010E94650B3A
:102B8000BC01C8014DEF54E00E94450B6C018091DF
:102B9000370790913807B7014AE050E00E94F718D4
:102BA000C801B601A7010E94650BBC01C8014FEC2A
:102BB00054E00E94450BBC01C801A7010E94650BAF
:102BC000BC01C80146EC54E00E94450B6C0184E84E
:102BD00093E0B7014AE050E00E94F718C801B6013F
:102BE000A7010E94650BBC01C80148EB54E00E949C
:102BF000450B6C018091350790913607B7014AE08B
:102C000050E00E94F718C801B601A7010E94650BA9
:102C1000BC01C8014CE854E00E94450BBC01C8014E
:102C2000A7010E94650BBC01C80143E854E00E9463
:102C3000450B6C0188E59BE1B7014AE050E00E943A
:102C4000F718C801B601A7010E94650BBC01C801B5
:102C500048E154E00E94450B26960FB6F894DEBF7B
:102C60000FBECDBFCF91DF911F910F91FF90EF90DD
:102C7000DF90CF9008952F923F924F925F926F9284
:102C80007F928F929F92AF92BF92CF92DF92EF92FC
:102C9000FF920F931F93DF93CF9300D000D00F923A
:102CA000CDB7DEB77C018E010F5F1F4FB80145E045
:102CB00022E131E00E940A128823F1F0C8010E944B
:102CC0001211882309F484C0C8010E94B618C82EC6
:102CD000D92E85EFC81681E0D80608F079C0B60174
:102CE00080E090E02DE730E040E050E00E9497184F
:102CF00044E00E9401053B01C7018E010F5F1F4F99
:102D0000B80145E028E131E00E940A128823F1F081
:102D1000C8010E941211882309F45CC0C8010E94F6
:102D2000B618A82EB92E89E5A8168BE1B80608F0CA
:102D300051C0B50180E090E02DE730E040E050E088
:102D40000E94971844E00E9401052B01C7018E01E3
:102D50000F5F1F4FB80145E02EE131E00E940A12DB
:102D60008823E1F0C8010E9412118823A9F1C8014B
:102D70000E94B618882E992E85E8881683E098065A
:102D800058F5B40180E090E023EA31E040E050E003
:102D90000E9497184BE00E9401051B0170922E07BC
:102DA00060922D075092300740922F0730923207E1
:102DB00020923107D0923407C0923307B092360781
:102DC000A0923507909238078092370780E005C0BF
:102DD00081E003C082E001C083E00F900F900F906C
:102DE0000F900F90CF91DF911F910F91FF90EF9077
:102DF000DF90CF90BF90AF909F908F907F906F901B
:102E00005F904F903F902F900895DF92EF92FF9246
:102E10000F931F93CF93DF93EC01D62EF42E0E94D5
:102E2000C612BC01CE010E94E912BC01CE0149EFDD
:102E300053E00E94450BBC0120913B0730913C07B9
:102E4000CE0140EF53E00FEF1FEFEF2C0E94EE1288
:102E5000BC01CE0146E953E00E94450BBC01FF20B6
:102E600021F0CE0143E653E003C0CE0147E153E039
:102E70000E94450BBC01DD2031F0CE014EEE52E048
:102E80000E94450BBC01CB01DF91CF911F910F91A7
:102E9000FF90EF90DF90089580E090E020E030E038
:102EA00041E050E0BA01082E02C0660F771F0A9475
:102EB000E2F7262B372B01968C30910599F730934A
:102EC0002B0720932A0710923A071092390708958A
:102ED0008F929F92AF92BF92CF92DF92EF92FF922A
:102EE0000F931F93DF93CF93CDB7DEB762970FB6E3
:102EF000F894DEBF0FBECDBF7C014B018A010E945A
:102F0000C612BC01C7014AE652E00E94450B5C01B3
:102F10006E010894C11CD11CC601B80144E02EE228
:102F20000AE00E94B311C701B501A6010E94650B1A
:102F3000BC01C70144E352E00E94450B5C01C6019D
:102F4000B40146E02EE200E10E94B311C701B501D1
:102F5000A6010E94650BBC01C70149EC51E00E942B
:102F6000450B62960FB6F894DEBF0FBECDBFCF9172
:102F7000DF911F910F91FF90EF90DF90CF90BF9066
:102F8000AF909F908F900895AF92BF92CF92DF92B3
:102F9000EF92FF920F931F93DF93CF93CDB7DEB7DE
:102FA00062970FB6F894DEBF0FBECDBF7C015B0108
:102FB0006A018E010F5F1F4FB80142E126E231E046
:102FC0000E940A12882349F0C8016EE2A6012AE095
:102FD00004E00E9420118823B1F0C7018E010F5F29
:102FE0001F4FB80142E129E231E00E940A12882312
:102FF00061F0C8016EE2A50120E106E00E94201107
:1030000091E0882319F490E001C091E0892F629645
:103010000FB6F894DEBF0FBECDBFCF91DF911F91E9
:103020000F91FF90EF90DF90CF90BF90AF900895F9
:103030006F927F928F929F92AF92BF92CF92DF92C8
:10304000EF92FF920F93DF93CF93CDB7DEB76297E6
:103050000FB6F894DEBF0FBECDBF7C013B015A0115
:103060000E94C612BC01C70140E851E00E94450B16
:103070004C016E010894C11CD11CC601B50144E08D
:103080002EE20AE00E94B311C701B401A6010E941A
:10309000650BBC01C70149E751E00E94450B4C019B
:1030A000C601B30146E02EE200E10E94B311C70160
:1030B000B401A6010E94650BBC01C70144E651E0C2
:1030C0000E94450B4C01C601B50144E02EE20AE026
:1030D0000E94B311C701B401A6010E94650BBC0197
:1030E000C70147E551E00E94450B62960FB6F89480
:1030F000DEBF0FBECDBFCF91DF910F91FF90EF905C
:10310000DF90CF90BF90AF909F908F907F906F9007
:103110000895CF93DF93EC010E94C612BC01CE014B
:1031200042E151E00E94450BDF91CF910895629FEB
:10313000D001739FF001829FE00DF11D649FE00DAF
:10314000F11D929FF00D839FF00D749FF00D659F10
:10315000F00D9927729FB00DE11DF91F639FB00D0F
:10316000E11DF91FBD01CF0111240895FC0188273D
:103170009927E89421912032E9F3293010F02E307C
:10318000C8F32B3241F02D3239F4689404C00E9408
:103190001819820F911D219120532A30C0F31EF47B
:1031A000909581959F4F0895FB01DC01415050405F
:1031B00030F08D910590801919F40020B9F7881B23
:1031C000990B0895FB01DC0101900D920020E1F7BD
:1031D0000895FB01DC014150504030F08D91019089
:1031E000801919F40020B9F7881B990B0895FB0189
:1031F0009F01E8944230C4F04532B4F44A3029F4D7
:1032000097FB1EF4909581959F4F642F77270E941E
:103210007619805D8A330CF0895D8193CB0100972C
:10322000A1F716F45DE251931082C9010C9466195E
:103230007AE0979F902D879F802D910D11240895FE
:10324000DC01CB01FC01F999FECF06C0F2BDE1BD66
:10325000F89A319600B40D9241505040B8F7089555
:10326000F999FECF92BD81BDF89A992780B508954E
:10327000A8E1B0E042E050E00C942219DC01A40F78
:10328000B51F4150504048F0CB01840F951F2E913F
:103290000E944F1941505040D0F70895262FF999B8
:1032A000FECF92BD81BDF89A019700B4021639F0A5
:1032B0001FBA20BD0FB6F894FA9AF99A0FBE089576
:1032C0000196272F0E944F190C944E19DC01FC0126
:1032D000672F71917723E1F7329704C07C916D934A
:1032E00070836291AE17BF07C8F30895AA1BBB1B7A
:1032F00051E107C0AA1FBB1FA617B70710F0A61BF6
:10330000B70B881F991F5A95A9F780959095BC0116
:08331000CD010895F894FFCFF0
:10331800500A4745542000636800706F730061636A
:10332800740077696474680064656C61790063751A
:0E3338007272656E74006970006D6163000052
:00000001FF
