:100000000C94B1040C9430080C94CE040C94CE04DF
:100010000C94CE040C9472060C94CE040C94CE0472
:100020000C94CE040C94CE040C94CE040C945B0679
:100030000C94CE040C94AF050C94CE040C94CE0416
:100040000C94CE040C94CE040C94CE040C94CE04E8
:100050000C94CE040C94CE040C94CE040C94CE04D8
:100060000C94CE040C94CE047365743A737461746A
:10007000003F0A007374617400436F6C6420524641
:100080002072656D6F74652073776974636820539F
:100090002E4E2E20310A002A69646E3F0A002F007E
:1000A0002F3F002F6465627567002F69705F6D6177
:1000B00063002F69705F6D6163002F7365747469ED
:1000C0006E6773002F73657474696E6773002F73A6
:1000D000775F636F6E66002F6175746F5F64657420
:1000E000656374002F73775F636F6E66002F73779D
:1000F0005F636F6E66002F002F72657365743F003B
:100100002F200044697361626C65640A0046616C6B
:1001100073650A00547275650A000A3C62723E708B
:100120006C656E203D20000A3C62723E6569725F1C
:100130007278657269665F6661756C745F636E7410
:10014000203D20000A3C62723E65737461745F62F8
:10015000756665725F6661756C745F636E74203D71
:1001600020000A3C62723E65636F6E315F72786593
:100170006E5F6661756C745F636E74203D20000A6B
:100180004465627567003C68323E436F6C64205280
:1001900046207377697463683C2F68323E3C707206
:1001A000653E496E76616C69642076616C75652E7A
:1001B0003C68723E3C6120687265663D222E223E9C
:1001C0005B486F6D655D3C2F613E00223E5B486F72
:1001D0006D655D3C2F613E003C68723E3C6120686D
:1001E0007265663D22687474703A2F2F000A4D4183
:1001F000433A09003C68323E436F6C64205246200B
:100200007377697463683C2F68323E3C7072653E58
:100210004E6574776F726B2073657474696E677363
:10022000206170706C6965642073756363657373B6
:1002300066756C6C792E0A0A49503A0900223E3CD8
:1002400062723E0A3C696E70757420747970653D07
:100250007375626D69742076616C75653D224170BD
:10026000706C79223E3C2F666F726D3E3C68723E28
:100270003C6120687265663D222E223E5B486F6DB0
:10028000655D3C2F613E093C6120687265663D22D8
:100290002E2F69705F6D6163223E5B5265667265E9
:1002A00073685D3C2F613E00223E3C62723E0A4D07
:1002B00041433A093C696E70757420747970653DEC
:1002C000746578742073697A653D3230206E616D93
:1002D000653D6D61632076616C75653D22003C680B
:1002E000323E436F6C6420524620737769746368B2
:1002F0003C2F68323E0A3C68333E4E6574776F721D
:100300006B2073657474696E67733C2F68333E3C71
:100310007072653E0A3C666F726D20616374696F2E
:100320006E3D2F69705F6D6163206D6574686F64E9
:100330003D6765743E49503A093C696E707574209A
:10034000747970653D746578742073697A653D329F
:1003500030206E616D653D69702076616C75653D1C
:1003600022000A3C6D65746120687474702D65719B
:100370007569763D22726566726573682220636FC7
:100380006E74656E743D2231223E003E3C2F666FD6
:10039000726D3E0A3C62723E0A3C68723E3C6120CD
:1003A000687265663D222E223E5B486F6D655D3C3E
:1003B0002F613E093C6120687265663D222E2F73D5
:1003C000775F636F6E66223E5B5265667265736827
:1003D0005D3C2F613E0A0064697361626C65643E36
:1003E0003C2F666F726D3E0A3C62723E42757379B5
:1003F0002E2E2E0A3C68723E5B486F6D655D095B70
:10040000526566726573685D0A000A3C62723E3C22
:10041000666F726D20616374696F6E3D2F73775FD5
:10042000636F6E662F6175746F5F64657465637466
:10043000206D6574686F643D6765743E3C696E70DD
:10044000757420747970653D7375626D697420767A
:10045000616C75653D224175746F206465746563D8
:10046000742220002F73775F636F6E66003C6833E1
:100470003E53776974636820636F6E66696775724F
:100480006174696F6E3C2F68333E0A003C62723EB5
:100490000A3C696E70757420747970653D7375627D
:1004A0006D69742076616C75653D224170706C7960
:1004B000223E3C2F666F726D3E3C68723E3C61206E
:1004C000687265663D222E223E5B486F6D655D3C1D
:1004D0002F613E093C6120687265663D222E2F73B4
:1004E000657474696E6773223E5B526566726573EC
:1004F000685D3C2F613E00223E206D73203C3D0034
:10050000093C696E70757420747970653D74657806
:10051000742073697A653D35206E616D653D646553
:100520006C61792076616C75653D22003C62723E9B
:100530000A44656C61793A090900223E206D412028
:100540003C3D00093C696E70757420747970653D9E
:10055000746578742073697A653D35206E616D65C8
:100560003D63757272656E742076616C75653D22AF
:10057000003C62723E0A43757272656E743A0900FD
:10058000223E206D73203C3D00093C696E707574FD
:1005900020747970653D746578742073697A653D5F
:1005A00035206E616D653D77696474682076616C95
:1005B00075653D22003C68323E436F6C64205246B4
:1005C000207377697463683C2F68323E0A3C683355
:1005D0003E50756C736520706172616D65746572F3
:1005E000733C2F68333E3C7072653E0A3C666F7206
:1005F0006D20616374696F6E3D2F73657474696EED
:100600006773206D6574686F643D6765743E5769F4
:100610006474683A090900223E00330031000A3C44
:100620006D65746120687474702D65717569763DAF
:1006300022726566726573682220636F6E74656EE0
:10064000743D22000A3C2F7072653E3C68723E4E3B
:100650002E20416272616D6F762C20323031362E41
:10066000204261736564206F6E203C623E74757831
:1006700067726170686963733C2F623E2054435017
:100680002F495020737461636B2E000A3C62723EE6
:100690003C6120687265663D222E2F736574746913
:1006A0006E6773223E5B50756C736520706172617A
:1006B0006D65746572735D3C2F613E093C61206815
:1006C0007265663D222E2F73775F636F6E66223EE2
:1006D0005B53776974636820636F6E6669677572D0
:1006E0006174696F6E5D3C2F613E0A3C62723E3CF4
:1006F0006120687265663D222E2F69705F6D6163AF
:10070000223E5B495020616E64204D41435D3C2F89
:10071000613E093C6120687265663D222E223E5B87
:10072000526566726573685D3C2F613E0A3C627279
:100730003E000A3C62723E5B50756C7365207061CE
:1007400072616D65746572735D095B53776974637B
:100750006820636F6E66696775726174696F6E5D3C
:100760000A3C62723E5B495020616E64204D4143F9
:100770005D095B526566726573685D0A3C62723E34
:10078000427573792E2E2E003E3C2F666F726D3EA1
:10079000090064697361626C656400223E3C696EA5
:1007A00070757420747970653D7375626D6974201D
:1007B00076616C75653D22526573657422003C66F6
:1007C0006F726D20616374696F6E3D2F7265736522
:1007D00074206D6574686F643D6765743E3C696E36
:1007E00070757420747970653D68696464656E2005
:1007F0006E616D653D63682076616C75653D2200B4
:100800000A3C62723E202009002F000A003C7374EB
:10081000796C653E666F726D7B646973706C61792B
:100820003A20696E6C696E652D626C6F636B3B7DFF
:100830003C2F7374796C653E0A000920202020004B
:1008400031223E5B785D3C2F613E0030223E5B4FA3
:100850004E5D3C2F613E00266163743D0026636857
:100860003D003F706F733D00093C61206872656612
:100870003D222E00092020202000095B785D000920
:100880005B4F4E5D000A2000094368003C707265B2
:100890003E202020003C68323E436F6C642052466C
:1008A000207377697463683C2F68323E000D0A43F9
:1008B0006F6E74656E742D547970653A2074657826
:1008C000742F68746D6C0D0A507261676D613A2007
:1008D0006E6F2D63616368650D0A0D0A3330312038
:1008E0004D6F766564205065726D616E656E746CD7
:1008F000793C2F68313E0A00485454502F312E3035
:1009000020333031204D6F766564205065726D6103
:100910006E656E746C790D0A4C6F636174696F6EED
:100920003A2000485454502F312E3020323030209D
:100930004F4B0D0A436F6E74656E742D547970655C
:100940003A20746578742F68746D6C0D0A5072616A
:10095000676D613A206E6F2D63616368650D0A0DE6
:100960000A0011241FBECFEFD8E0DEBFCDBF11E0DB
:10097000A0E0B1E0E6E2F5E302C005900D92AE32F0
:10098000B107D9F727E0AEE2B1E001C01D92AF3563
:10099000B207E1F70E944F0E0C94911A0C940000DC
:1009A00044E050E066E070E082E497E00E944B1A79
:1009B00046E050E060E070E086E497E00C944B1A6B
:1009C00086E497E00E94CF0982E00E94A30980E0BC
:1009D0008A95F1F766E774E084E10C9486090E9439
:1009E000D0040E94E00462E477E086E497E00E948D
:1009F000070D80E590E00C94190D86E497E00E94C5
:100A0000A80962E477E086E497E00C94070D44E0DF
:100A100050E066E070E082E497E00E94691A46E0E8
:100A200050E060E070E086E497E00C94691A44E0DE
:100A300050E06AE070E082E497E00E944B1A46E0E2
:100A400050E06EE070E086E497E00E944B1A44E0CC
:100A500050E066E070E082E497E00E94691A46E0A8
:100A600050E060E070E086E497E00E94691A0C9420
:100A7000FD04CF93DF936FE180E00E940009D82F3F
:100A8000D4706DE180E00E940009C82FC0746CE151
:100A900080E00E940009982F9170D1110AC0209126
:100AA0003601309137012F5F3F4F3093370120934C
:100AB0003601CC2351F020913401309135012F5F64
:100AC0003F4F3093350120933401992351F0209109
:100AD0003201309133012F5F3F4F30933301209328
:100AE0003201DD2331F0CC2331F081E0911104C0DB
:100AF00002C081E001C080E0DF91CF910895CF92E4
:100B0000DF92EF92FF926B017C0160912E01709158
:100B10002F0180913001909131010E94F205C6169B
:100B2000D706E806F906B0F40E94DF0560932E01AF
:100B300070932F0180933001909331010E94390509
:100B4000882341F00E94C509FF90EF90DF90CF907D
:100B50000C94E004FF90EF90DF90CF9008951F92E7
:100B60000F920FB60F9211248F939F93AF93BF9361
:100B70008091380190913901A0913A01B0913B01E7
:100B80000197AF4FBF4F8093380190933901A093E5
:100B90003A01B0933B01BF91AF919F918F910F901C
:100BA0000FBE0F901F901895E1E8F0E080818560FE
:100BB0008083EFE6F0E0808181608083089520915A
:100BC0008400309185008091380190913901A09185
:100BD0003A01B0913B01BC01CD01620F731F811D31
:100BE000911D0895CF92DF92EF92FF920F931F9382
:100BF0006B017C010E94DF058B019C010C191D0912
:100C00002E093F096C157D058E059F0538F4C90135
:100C1000B801615071098109910902C0C901B80187
:100C20001F910F91FF90EF90DF90CF900895CF929A
:100C3000DF92EF92FF920F931F934423A9F10FEFDE
:100C40001FEF9801042E04C0000F111F221F331F35
:100C50000A94D2F700951095209530950623172316
:100C6000282339235FEF540FE1E0F0E06F0102C069
:100C7000CC0CDD1C5A95E2F70D2C000CEE08FF0899
:100C8000DC01CB0104C0B695A795979587954A9549
:100C9000D2F7BC01CD01C016D106E206F30620F45E
:100CA0006F5F7F4F8F4F9F4F1F910F91FF90EF907E
:100CB000DF90CF9008951F920F920FB60F921124DC
:100CC0008F93EF93FF93419A4198EFE6F0E0808194
:100CD0008D7F8083FF91EF918F910F900FBE0F90CA
:100CE0001F9018951F920F920FB60F9211248F9399
:100CF00081E080934E078F910F900FBE0F901F9051
:100D0000189584E190E00E945B1A90915307890F37
:100D10008093B40008954CE050E069E170E08FE406
:100D200097E00E944B1A87E190E00E94631A90932B
:100D30004D0780934C0785E190E00E94631A9093E1
:100D40005E0780935D0708958FE087B9539AE0EBC3
:100D5000F0E0808183608083808180628083109254
:100D6000B400E1EBF0E0808181608083E9E6F0E0AF
:100D7000808182608083E89AEDE6F0E08081806186
:100D800080830E948B060C9481064CE050E069E160
:100D900070E08FE497E00E94691A60914C077091AF
:100DA0004D0787E190E00E948B1A60915D0770917A
:100DB0005E0785E190E00C948B1A660F5CE0859FDE
:100DC000600D1124442311F0409801C0409A429ACA
:100DD000429887E190E070E09B012F5F3F4F6817DA
:100DE000790711F4411103C02817390711F4409A0B
:100DF00001C04098429A4298019788F710924E0796
:100E0000DA9A809168008460809368002091840061
:100E10003091850080914F0790915007820F931F6A
:100E20009093890080938800419A419889E1409885
:100E3000429A42988150D9F782E086BB80916F0038
:100E4000826080936F0080916F0081FDFCCF809164
:100E500068008B7F8093680080914E070895EF9221
:100E6000FF921F93CF93DF93182FE0915B07F091D0
:100E70005C07A0914C07B0914D0790E080E0EE2414
:100E8000E394F12C60E0292F260FE70102C0CC0F7C
:100E9000DD1F2A95E2F79E012E233F23AE014A2350
:100EA0005B232115310579F04115510561F441E0CD
:100EB0000E94DD068823B1F180914C0790914D0787
:100EC000C82BD92B11C0452B11F1232B01F540E084
:100ED0000E94DD06882371F0C095D09580914C0763
:100EE00090914D07C823D923D0934D07C0934C0749
:100EF00081E019C01123B1F020915B0730915C07AC
:100F0000C22BD32BD0935C07C0935B070CC06F5FE1
:100F1000663009F0B8CF8F5F9A5F823009F0B2CFA8
:100F200082E001C080E0DF91CF911F91FF90EF90B0
:100F30000895CF92DF92EF92FF92CF93DF93EC016F
:100F4000662361F00E94DF0560934A0170934B01B4
:100F500080934C0190934D0121E014C060914A01AF
:100F600070914B0180914C0190914D010E94F205CE
:100F70006E01E12CF12C21E06C157D058E059F059D
:100F800008F420E0822FDF91CF91FF90EF90DF9067
:100F9000CF9008950F93DC01862F880F860F880F5E
:100FA000840FED91FC9111972223F1F021E030E0C4
:100FB000A90102C0440F551F8A95E2F7CA019A01A0
:100FC0002E2B3F2B0023D9F056E0659FB001112452
:100FD000EFE3F0E002C0EE0FFF1F6A95E2F7E09545
:100FE000F095E82BF92B09C021E030E002C0220F78
:100FF000331F8A95E2F7209530952E233F232D93BA
:101000003C930F91089526E0629FB00111242FE3D5
:1010100030E002C0220F331F6A95E2F72095309529
:10102000FC0140815181242335233183208308959D
:10103000CF92DF92EF92FF920E94DF056B017C015D
:10104000C701B6010E94F205603273408105910527
:10105000B8F74A9BF1CFFF90EF90DF90CF900895C3
:101060001F920F920FB60F9211242F933F934F931D
:101070005F936F937F938F939F93AF93BF93EF9300
:10108000FF930E94C5060E941808FF91EF91BF913F
:10109000AF919F918F917F916F915F914F913F9110
:1010A0002F910F900FBE0F901F901895439A08959F
:1010B000439808958F929F92AF92BF92CF92DF9202
:1010C000EF92FF920F931F936B017C0149015A012C
:1010D000809149018823C9F00E94DF0500914501F4
:1010E000109146012091470130914801DC01CB016C
:1010F000801B910BA20BB30B88169906AA06BB06A0
:1011000020F40E945808109249010E94DF05809047
:10111000450190904601A0904701B0904801DC0144
:10112000CB0188199909AA09BB09C816D906EA068C
:10113000FB0678F40E9456080E94DF056093450183
:1011400070934601809347019093480181E080931A
:1011500049011F910F91FF90EF90DF90CF90BF90CA
:10116000AF909F908F900895CF92DF92EF92FF9271
:101170006B017C01672B682B692BC1F00E9456081C
:101180000E94DF0560934101709342018093430107
:1011900090934401C0923D01D0923E01E0923F0104
:1011A000F092400181E080933C0125C00E94DF0560
:1011B000C0904101D0904201E0904301F090440181
:1011C000DC01CB018C199D09AE09BF09C0903D011E
:1011D000D0903E01E0903F01F0904001C816D90642
:1011E000EA06FB0640F480913C01882321F00E942E
:1011F000580810923C01FF90EF90DF90CF90089537
:101200002A98962F9F71892B8EBD0DB407FEFDCFB6
:101210001EBC0DB407FEFDCF67FD03C02A9A8EB534
:1012200008951EBC0DB407FEFDCFF8CF2A986F714C
:10123000862B8EBD0DB407FEFDCF4EBD0DB407FE4F
:10124000FDCF2A9A0895FB012A982AE32EBD0DB4FA
:1012500007FEFDCF8E0F9F1FE817F90739F01EBC60
:101260000DB407FEFDCF2EB52193F6CF10822A9A3A
:1012700008952A982AE72EBD0DB407FEFDCF860FEC
:10128000971F6817790741F0FB012191BF012EBD1F
:101290000DB407FEFDCFF5CF2A9A08951F93CF9383
:1012A000DF93182F1076C12FD0E08091500190E08D
:1012B000C817D90789F043E06FE180EA0E94160958
:1012C000AE0185E0559547958A95E1F76FE180E895
:1012D0000E94160910935001DF91CF911F9108953C
:1012E000CF93C82F0E944E096C2F80E0CF910C94B1
:1012F0000009CF93DF93C82FD62F0E944E094D2FA0
:101300006C2F80E4DF91CF910C941609CF93DF937B
:10131000D62FC72F682F84ED0E9479096D2F86ED97
:101320000E9479096C2F87ED0E947909C8E28AEE44
:101330000E94700980FF04C08C2F8A95F1F7F7CFC7
:10134000DF91CF910895682F677085E70C94790934
:10135000CF93DF93EC01688184EE0E947909698163
:1013600085EE0E9479096A8182EE0E9479096B817B
:1013700083EE0E9479096C8180EE0E9479096D816B
:1013800081EEDF91CF910C947909299880ED97E057
:10139000FC013197F1F7299A0197F1F70895CF935E
:1013A000DF93EC0184B1866084B9299A2A9A84B1CA
:1013B000886284B924982B982D9880E58CBD8DB5D2
:1013C00081608DBD8DB582608DBD4FEF60E08FEF88
:1013D0000E94160980E090E00197F1F710924F010A
:1013E00010924E0160E088E00E94790960E089E097
:1013F0000E94790960E08CE00E94790960E08DE04C
:101400000E9479096FEF8AE00E94790969E18BE017
:101410000E94790960E084E00E9479096AE185E030
:101420000E9479096FEF86E00E9479096FE187E0F9
:101430000E94790960EB88E30E9479096FE388E2F2
:101440000E94790960E389E20E94790969EF80E3EB
:101450000E94790967EF81E30E9479096DE080ECD1
:101460000E94790960E081EC0E94790942E362EC14
:1014700080E80E94160962E186EC0E9479096CE01E
:1014800087EC0E94790962E184EC0E9479096CED95
:101490008AEC0E94790965E08BEC0E947909CE0103
:1014A0000E94A80960E071E080E10E9486098FE156
:1014B0000E944E0940EC6BE180E80E94160944E06E
:1014C0006FE180E8DF91CF910C9416090F931F9381
:1014D000CF93DF93EC018B016FE180E00E94000964
:1014E00083FDFACF8CE10E94700981FF13C040E8B0
:1014F0006FE180E80E94160940E86FE180EA0E94EF
:10150000160942E06CE180EA0E94160980E395E743
:101510000197F1F760E082E00E9479096AE183E0D7
:101520000E9479096C2F86E00E947909CE01965EAF
:10153000692F87E00E94790940E060E08AE70E9415
:101540001609B801CE010E94390948E06FE180E830
:10155000DF91CF911F910F910C9416099F92AF923A
:10156000BF92CF92DF92EF92FF920F931F93CF9390
:10157000DF936C017B0189E30E947009882309F4E1
:101580005AC060914E01C0914F0180E00E947909DC
:101590006C2F81E00E94790960E08AE30E940009D3
:1015A000082F60E08AE30E94000910E0182B1093D6
:1015B0004F0100934E0160E08AE30E940009C82FAA
:1015C00060E08AE30E940009982E60E08AE30E94AE
:1015D0000009A82E60E08AE30E940009A7FE0EC061
:1015E000C6010197D0E0D92924978C179D0708F4EC
:1015F000EC01B701CE010E94230902C0C0E0D0E097
:101600006FEF01308AE118072CF08CE00E94790915
:1016100069E107C0600F8CE00E947909C801019759
:10162000692F8DE00E94790940E46EE180E80E9414
:101630001609CE0102C080E090E0DF91CF911F91AA
:101640000F91FF90EF90DF90CF90BF90AF909F9061
:1016500008950F931F93CF93DF93FC019B014130BB
:1016600051F4AB014850510960E070E04F5E5F4FAC
:101670006F4F7F4F0FC0423051F4AB0148505109BA
:1016800060E070E04A5F5F4F6F4F7F4F03C040E004
:1016900050E0BA01C901EF018230910558F0A991DB
:1016A000B991BA27AB27BA274A0F5B1F611D711D7D
:1016B0000297F2CFC9018E7FE80FF91F281739076B
:1016C00061F0808190E0A0E0B0E0BA2FA92F982FC0
:1016D0008827480F591F6A1F7B1F8B01222733273A
:1016E000011511052105310539F066277727400FCF
:1016F000511F621F731FF1CFCA0180959095DF9132
:10170000CF911F910F910895FC01892B39F096E03C
:10171000AAE5B1E001900D929A95E1F7089569323A
:101720007105A0F0FC012485283081F42585263040
:1017300069F4B696A6E5B1E08A9631912D913213FF
:1017400005C0E817F907C9F781E0089580E008951A
:10175000CF93DF93FC016A327105B8F0848588303D
:10176000A1F48585811111C09685953479F4DF0146
:101770005E96C6E5D1E0B2962D919991291306C0E7
:10178000AE17BF07C9F781E001C080E0DF91CF91BC
:101790000895FC01AAE5B1E00696268121932D91DA
:1017A0002583E817F907C9F70895CF93DF93EC0174
:1017B000188E198E80E48C8B1D8A8E8B40E064E13C
:1017C00070E0CE010E960E94290B988F898FDF91D1
:1017D000CF910895A6E5B1E0FC017A969C01225EC6
:1017E0003F4F408144834D914193E217F307C9F77E
:1017F0000C94D50BFC01BA9686962291620F711D4E
:1018000024816483442311F0208301C01082672F58
:1018100077278E179F0789F70895CF93DF93EC0101
:101820008CA19AA19CA38AA38DA19BA19DA38BA30C
:10183000CE010E94FA0B1AAA1BAA80E58EA7DF919F
:10184000CF910895CF93DF93EC010E94C90B1C8ABE
:1018500082E08D8B8AE591E0AE014A5E5F4FFE012A
:101860007C96DA012C911A962C93DC012D91CD01F6
:10187000DA012D93AD01AE17BF0799F7A6E5B1E0E8
:10188000CE018096208122872D912193E817F907B8
:10189000C9F7BE018AE290E0DF91CF910C94660A0D
:1018A0000F931F93CF93DF93EC018B010E94C90B21
:1018B000CE010E94EA0B1AA28CA1883F18F09DA1CC
:1018C0009F5F9DA3885F8CA3BE01C801DF91CF916C
:1018D0001F910F910C94660AFC01208931893227EF
:1018E000232732272451310986A582958F70A901BB
:1018F00064E0869F401951091124CA0157FF02C0B4
:1019000080E090E00895DB01D696A80FB91FFA0198
:10191000641B750B9B012E0F3F1F949131969923E9
:1019200011F09D93F7CFC9010895FA01DB01D69616
:10193000A80FB91F822F882321F091919D93815088
:10194000FACFCB01820F911D0895FA01019000207A
:10195000E9F731979F01241B350B0C94950CFF92EE
:101960000F931F93CF93DF93EC018B01F42E0E9412
:10197000C90B8F2D80618FA784E0F81629F001151F
:10198000110511F401E010E041E0B801CE010E9420
:101990000D0C188A88E2898BCE010E94EA0B84E044
:1019A00088AB19AA42E06CE170E0CE014A960E9431
:1019B000290B9AAB8BABBE0186E390E0DF91CF9110
:1019C0001F910F91FF900C94660A0F931F93CF9372
:1019D000DF93EC018B01CB018896988B898BCE012C
:1019E0000E94D50B1AAA1BAAB801645E7F4F42E081
:1019F000CE014A960E94290B9AAB8BABBE01C8015F
:101A0000C696DF91CF911F910F910C94660A6115D4
:101A1000710519F4009759F40895FB01A6E5B1E0AA
:101A200021912D9321E0AA35B207D1F7F3CF0C9481
:101A3000840B90935301809300010895CF93DF931B
:101A4000EC010E94C90B188A8CE2898BCE010E949E
:101A5000EA0B82E18FA740E061E070E0CE010E94D6
:101A60000D0C1EA21FA28091010188A719A68D5FEF
:101A70008093010182E08EAB84E08FAB85E088AF7C
:101A800019AE80E68EA78AE088AB19AA42E060E230
:101A900070E0CE014A960E94290B9AAB8BABBE0137
:101AA0008AE390E0DF91CF910C94660AFF920F9346
:101AB0001F93CF93DF93EC018B01F42E60915101C2
:101AC0007091520140E00E94AF0CFF2011F089E1BB
:101AD00001C088E18FA7B801CE01DF91CF911F919E
:101AE0000F91FF900C94E50CDF92EF92FF920F9311
:101AF0001F93CF93DF937C018B010E948F0B882370
:101B000049F0F7018589813009F053C0C7010E946F
:101B1000220C4FC0B801C7010E94A80B882309F40A
:101B200048C0F7018789813089F482A1883071F437
:101B3000E0915401F0915501309719F0C7014A9690
:101B40000995B801C7010E94500C33C0F70194A158
:101B50008091530198132DC095A180910001981395
:101B600028C0D7A4D1FE04C0C7010E941E0D21C009
:101B7000D4FE1FC0C7010E946C0CEC01909352016F
:101B800080935101892B49F4D0FE13C040E060E0FE
:101B900070E0C7010E94AF0C0EC0F701C6A5C29548
:101BA000CF70F4E0CF9FE0011124A2960C171D071F
:101BB00010F4C0E0D0E0CE01DF91CF911F910F91E2
:101BC000FF90EF90DF900895CF92DF92EF92FF9217
:101BD0000F931F9368017901FC012081862F90E00B
:101BE000622F70E06823792380916401672BA1F54F
:101BF00081110DC0409364010E94DF056093600174
:101C000070936101809362019093630102C0841715
:101C100011F081E03DC00E94DF050091600110914C
:101C200061012091620130916301DC01CB01801BD5
:101C3000910BA20BB30B8C159D05AE05BF0548F3A8
:101C40000E94DF05609360017093610180936201DF
:101C50009093630182E01CC0481711F080E018C027
:101C60000E94DF05009160011091610120916201E5
:101C700030916301DC01CB01801B910BA20BB30BF4
:101C80008C159D05AE05BF0548F31092640183E0F5
:101C90001F910F91FF90EF90DF90CF9008950FB6B6
:101CA000F894A895809160008861809360001092FC
:101CB00060000FBEF8940E94D4050E94180880E0CE
:101CC0008A95F1F70E94C5099FE088E10FB6F89464
:101CD000A895809360000FBE909360000E94EF046F
:101CE0002098289A0E94A4067894B12CD0E0C0E0F5
:101CF000A8952CED35E040E050E060EB70E381E02A
:101D000090E00E945A0860E070E0CB010E94B408A5
:101D10006DE271E381E090E00E947F050DE81BE534
:101D200020E030E041E061E083E290E00E94E40DD9
:101D3000823029F4B11037C20E94170534C2B110A5
:101D400032C28FEF8C0F833088F58EEF8C0F82308C
:101D500010F481E001C080E00E942F07813071F013
:101D600018F0823089F02EC0C13041F480914C07C8
:101D700090914D0790935C0780935B0761E080E052
:101D800090E00E94990714C0C23009F01CC28091F3
:101D90004C0790914D078095909590935E078093A6
:101DA0005D0710924D0710924C070DC2C43051F4DC
:101DB00060E080915107909152070E94990781112C
:101DC00005C2C4E065E671E08CED95E00E94AE0AC4
:101DD00010924107BC0185E691E00E94740D7C01E0
:101DE000892B09F485CF68EE73E080E090E00E94D3
:101DF000B408C7018B599E4F6C0144E050E0BC0110
:101E000082E091E00E94F519892B09F017C1870142
:101E100007591E4F42E050E060E071E0C8010E94A7
:101E2000E019892B51F4CC2311F061E001C060E08E
:101E300085E691E00E949714FFC047E050E068EF0C
:101E400070E0C8010E94E019892B61F4C11107C03C
:101E5000C8010E94A215882311F0D3E0C3E066EF09
:101E600070E0E6C048E050E06DEE70E0C8010E940E
:101E7000E019892BA9F5C7018F589E4FFC012081DD
:101E8000203281F4D23019F441E061E006C0C11182
:101E900002C040E001C041E060E085E691E00E94C0
:101EA0008717CAC02F3359F4C11106C040E06DE551
:101EB00077E0C8010E94441564EE70E0B9C04BE0C1
:101EC00050E067ED70E00E94E019892B49F4C111E0
:101ED00004C00E94D217D2E0C2E06EEC70E0A8C04D
:101EE00049E050E064EC70E0C8010E94E019892BE1
:101EF000B9F4F6018585803229F485E691E00E94E7
:101F0000F7159AC08F3361F4C11107C0C8010E9450
:101F1000CE16811102C00E9481066AEB70E088C073
:101F200047E050E062EB70E0C8010E94E019892BA5
:101F3000A9F5F6018385803249F442E457E066E46E
:101F400077E085E691E00E94EE1776C08F3331F599
:101F5000C11121C042E457E066E477E0C8010E9465
:101F60004A18882399F00E94070542E457E066E486
:101F700077E085E691E00E949D1841E0BC0185E68E
:101F800091E00E94560D0E94FD04B2CE85E691E0DC
:101F90000E940F1951C06AEA70E04AC046E050E062
:101FA00063EA70E0C8010E94E019892B49F4F60148
:101FB0008285803229F485E691E00E941C193CC09C
:101FC000C11134C042E050E060EA70E0C8010E94F4
:101FD000E019892B59F580914C0790914D0790930A
:101FE0005C0780935B0741E06BE577E0C8010E94E6
:101FF0004415882371F020915B0730915C07809134
:102000005D0790915E078223932390935C078093F2
:102010005B0720915B0730915C0780914C079091A2
:102020004D072817390711F0D1E0C1E06EE970E0E3
:1020300085E691E00E94661341E0AFC04FEF6AE091
:10204000C6010E9400138F3F09F452CE46E050E0D3
:1020500067E970E0C6010E94E019892B49F449E75D
:1020600050E060E070E085E691E00E94830C94C04F
:1020700044E050E064E770E0C6010E94E019892B5B
:1020800009F045C0870107591E4F42E050E061E763
:1020900070E0C8010E94E019811107C06CE477E08C
:1020A00085E691E00E942E1177C0F8018081803290
:1020B00071F580914C0790914D0790935C07809348
:1020C0005B076BE577E0C70186599E4F0E94FA10C7
:1020D0008823E9F020915B0730915C0780915D07D0
:1020E00090915E078223932390935C0780935B0714
:1020F00020914C0730914D078217930709F443C094
:1021000085E691E00E94E810D1E0C1E045C048E0DA
:1021100050E068E670E0C6010E94E019892BC1F525
:10212000F60180858032A1F580914C0790914D0792
:1021300090935C0780935B076BE577E0C70182595A
:102140009E4F0E94FA10882319F120915B0730916D
:102150005C0780915D0790915E07822393239093A3
:102160005C0780935B0720914C0730914D078217E5
:10217000930749F090934D0780934C0785E691E0D3
:102180000E94E81009C085E691E00E94F41004C0A6
:1021900085E691E00E94EE1040E0BC0185E691E00A
:1021A0000E94560DA5CD01E010E020E030E041E0B6
:1021B00061E083E290E00E94E40DBB24B3948111BE
:1021C000C0CDB12CBECDD0E0C0E0FCCDCD2FFACD3E
:1021D00044E151E060E070E00C94830C4DE051E08C
:1021E00060E070E00C94830C43E051E060E070E04C
:1021F0000C94830CEF92FF920F93CF93DF9300D058
:10220000CDB7DEB77B0102E02AE0AE014F5F5F4F42
:102210006CE20E943A128823C9F089816FEF680F3F
:10222000623098F49A814FEF490F463030F401E064
:1022300021E0C7010E94CA0706C0911106C0682F9D
:10224000C7010E94030881E001C080E00F900F9059
:10225000DF91CF910F91FF90EF9008954F925F9291
:102260006F927F928F929F92AF92BF92CF92DF92A6
:10227000EF92FF920F931F93CF93DF93CDB7DEB70B
:102280002D970FB6F894DEBF0FBECDBF5C014B019A
:10229000E12CF12CCC24C394D12C512C8E01075F5E
:1022A0001F4F9CE2492E66246394712C4AE0B801CA
:1022B000C6010E940E1AB80181E090E08C0F9D1FAC
:1022C000850D911D0E94EE19F80101900020E9F79B
:1022D0003197E01BF10B5E0EE1E0F0E0EC0FFD1F2B
:1022E000E50DF11D40825394F401608171819701E5
:1022F00080E0A301022E02C0440F551F0A94E2F7AA
:10230000462357238F5F452B29F42F5F3F4F86309D
:1023100081F780E04AE0B80190E00E940E1AB8010F
:1023200081E090E08C0F9D1F850D911D0E94EE199C
:10233000F80101900020E9F73197E01BF10B5E0EE8
:10234000E1E0F0E0EC0FFD1FE50DF11D408253943C
:10235000FFEFCF1ADF0A86E0E80EF11CECE0EE1684
:10236000F10409F0A3CFFE01E50DF11D1082AE01CD
:102370004F5F5F4F60E070E0C5010E94A50C2D9695
:102380000FB6F894DEBF0FBECDBFDF91CF911F9186
:102390000F91FF90EF90DF90CF90BF90AF909F9004
:1023A0008F907F906F905F904F90089590ED980F71
:1023B0009A3060F09FE9980F963010F48755089591
:1023C0009FEB980F963020F487530895892F089536
:1023D00080E008959F92AF92BF92CF92DF92EF92EA
:1023E000FF920F931F93CF93DF936C01FC01019039
:1023F0000020E9F73197E81BF90B9E2E00E010E072
:10240000AA24A394B12CE12CF12CEF01DD270915AE
:10241000C8F4FE01E01BF10BEC0DFD1D319780812E
:102420000E94D611282F2A9DC0012B9D900D1124AA
:10243000E80EF91E84E0AA0CBB1C8A95E1F70F5F39
:102440001F4FE5CFC701DF91CF911F910F91FF90F3
:10245000EF90DF90CF90BF90AF909F900895FC01D8
:102460009191992329F090539A30D0F380E0089508
:1024700081E00895BF92CF92DF92EF92FF920F9387
:102480001F93CF93DF9300D000D0CDB7DEB7B62E29
:102490006A01122F7C01FC0190E080E0219130ED77
:1024A000320F323058F03A3010F4123039F4322F03
:1024B0003F7D3154363080F4103171F48F5F8130BC
:1024C00069F3123009F44FC0843008F04CC08330F7
:1024D00029F7103119F747C02B1107C09F5F9017DC
:1024E00008F041C08111D9CF3EC0222311F02A301B
:1024F000D1F58823C1F19F5F091335C000E020E0CA
:10250000F70131917F01822F90E0B31621F0332340
:1025100011F03A30F9F4E1E0F0E0EC0FFD1FE80FC4
:10252000F91F1082CE010196103119F40E94EA11B0
:1025300006C00E94C2198F3F910509F0A4F4F6016C
:10254000E00FF11D8083F70131978081B8120DC033
:102550000F5FD5CFE1E0F0E0EC0FFD1FE80FF91FB2
:1025600030832F5FCDCF80E001C081E00F900F90CE
:102570000F900F90DF91CF911F910F91FF90EF90EF
:10258000DF90CF90BF900895AF92BF92CF92DF922D
:10259000EF92FF920F931F93CF93DF936C01D22F93
:1025A0007B015B01A40EB11CC0E010E0AE14BF04BF
:1025B000B9F0F70181917F01A801B6016C0F711D7F
:1025C00090E00E94031AF601EC0FF11D8081882330
:1025D00011F0CF5FF8CFDD2349F3D083CF5FE6CF93
:1025E000C150F601EC0FF11D1082DF91CF911F91C8
:1025F0000F91FF90EF90DF90CF90BF90AF90089534
:10260000FC0120E030E050E09081961769F024173B
:10261000350754F48FEB890F8A3110F4905E908364
:102620002F5F3F4F3196F0CF822F0895CF93DF93E6
:10263000D901F90130E0EC012881522F5F7D41F48E
:102640003130D1F5FC01DB0150E0415051092DC082
:102650002D30B1F33111F4CF508125131AC0EA1790
:10266000FB0739F4EC01219728812F3311F0263232
:1026700089F42181222311F031960CC0EC012196BE
:1026800031E0FC0181818D3309F030E0FD01CE01A4
:1026900001C0FD010196CFCF8D3069F0863259F02F
:1026A00030E0241735073CF48D932A2F261B8191A7
:1026B000982F9F7D89F71C9281E0DF91CF9108953B
:1026C00043E259E060E070E00C94830C0F931F9399
:1026D000CF93DF93EC018B0148EF58E060E070E0AE
:1026E0000E94830CA801BC01CE010E94830C4DEA1C
:1026F00058E0BC01CE01DF91CF911F910F910C9456
:10270000830C45E958E00C94830C2F923F924F9232
:102710005F926F927F928F929F92AF92BF92CF9271
:10272000DF92EF92FF920F931F93CF93DF93CDB77A
:10273000DEB72D970FB6F894DEBF0FBECDBF6C018C
:102740005A87498729011C870B87ED864CE858E09A
:102750000E94830C8C01AA24A394B12CCE01019673
:102760007C014AE0B701C5010E940E1A48E858E012
:10277000B801C6010E94830CF70101900020E9F71F
:1027800031979F012E193F09A701BC01C6010E9484
:10279000950C8C019FEFA91AB90A23E0A216B10487
:1027A00001F7A12CB12C45E858E0B801C6010E9400
:1027B000830C8C0115018FEF281A380A4AE0B70103
:1027C000C1010E940E1AF70101900020E9F731972C
:1027D0009F012E193F09A701B801C6010E94950C5F
:1027E0008C0188248394912C66246394712C0A2C88
:1027F00002C0660C771C0A94E2F78B859C858621C3
:1028000097212D85222379F0892B51F064207520A2
:10281000672819F04FE758E05AC04AE758E057C018
:1028200044E758E054C0892B09F44FC048E658E00B
:10283000B801C6010E94830C49855A85BC01C601B6
:102840000E94830C42E658E0BC01C6010E94830C42
:102850008C014AE0B701C1010E940E1AF7010190F4
:102860000020E9F731979F012E193F09A701B80110
:10287000C6010E94950C4DE558E0BC01C6010E94BE
:10288000830C8C014AE0B701C4010E940E1AF701C3
:1028900001900020E9F731979F012E193F09A70108
:1028A000B801C6010E94950C47E558E0BC01C6017D
:1028B0000E94830CBC0164207520672819F04BE44A
:1028C00058E006C040E458E003C04AE358E0B801CD
:1028D000C6010E94830C8C0186E0A80EB11C9FEFFC
:1028E000891A990A23E08216910409F07DCF5101DB
:1028F00086E02816310409F056CFC8012D960FB690
:10290000F894DEBF0FBECDBFDF91CF911F910F9125
:10291000FF90EF90DF90CF90BF90AF909F908F90FF
:102920007F906F905F904F903F902F9008959F926F
:10293000AF92BF92CF92DF92EF92FF920F931F93CD
:10294000CF93DF93CDB7DEB728970FB6F894DEBFED
:102950000FBECDBF6C01962E0E9460134DE058E073
:10296000BC01C6010E94830CBC01C6010E948113F8
:102970004BE058E0BC01C6010E94830C00915D074A
:1029800010915E0720914C0730914D07E92C49E0EA
:1029900058E0BC01C6010E94851340E058E0BC012C
:1029A000C6010E94830CBC0101E010E0CE0101963B
:1029B0007C014EEB57E0C6010E94830C5C014AE0AB
:1029C000B701C8010E940E1AF70101900020E9F733
:1029D00031979F012E193F09A701B501C6010E9439
:1029E000950C4BE957E0BC01C6010E94830C99206D
:1029F00031F042E957E0BC01C6010E94830C48E86F
:102A000057E0BC01C6010E94830CBC010F5F1F4F41
:102A10000330110571F6992019F042E357E002C026
:102A20004BE856E0C6010E94830C44E456E0BC012A
:102A3000C6010E94830C4EE156E0BC01C6010E9413
:102A4000830CBC01992019F04CE156E002C04AE128
:102A500056E0C6010E94830C47E156E0BC01C60166
:102A60000E94830C28960FB6F894DEBF0FBECDBF30
:102A7000DF91CF911F910F91FF90EF90DF90CF905A
:102A8000BF90AF909F900895AF92BF92DF92EF9268
:102A9000FF920F931F93CF93DF9300D01F92CDB778
:102AA000DEB77C015B01042F27E031E043E0BE018B
:102AB0006F5F7F4F0E941613811102C080E035C006
:102AC000CE0101960E94C2191FEF180F1230B0F705
:102AD0002AE031E043E0BE016F5F7F4FC7010E94F3
:102AE0001613882359F3CE0101960E94C219DD24E2
:102AF000DA94D80E85E08D1508F32EE031E043E03E
:102B0000BE016F5F7F4FC7010E9416138823B1F289
:102B1000CE0101960E94C219823080F6282F4D2DD9
:102B2000612FC5010E94CA0781E00F900F900F909E
:102B3000DF91CF911F910F91FF90EF90DF90BF90A9
:102B4000AF9008950F931F93CF93DF9300D01F9200
:102B5000CDB7DEB727E031E043E0BE016F5F7F4FC6
:102B60000E9416138823D9F1CE0101960E94C21942
:102B70008150823098F5982F990F890F880F4091D6
:102B80004C0750914D079A0160E070E090E0A1E0A1
:102B9000B0E0FC01E60FF71F8D0102C0000F111F0E
:102BA000EA95E2F7F801202B312BE095F0954E23C2
:102BB0005F236F5F7F4F6630710559F750935C0755
:102BC00040935B0780915D0790915E07282339232E
:102BD00030934D0720934C0781E001C080E00F90B7
:102BE0000F900F90DF91CF911F910F910895CF9289
:102BF000DF92EF92FF920F931F93CF93DF9300D05A
:102C000000D000D0CDB7DEB78C010E94601345EB39
:102C100055E0BC01C8010E94830C6C018FE4E82ED2
:102C200087E0F82E4AE0BE016F5F7F4FF701868193
:102C300097810E940E1AAE014F5F5F4FB601C80127
:102C40000E94A50C49E855E0BC01C8010E94830C14
:102C5000AE014F5F5F4FBC01C8010E94A50C40E868
:102C600055E0BC01C8010E94830C6C014AE0BE0122
:102C70006F5F7F4F84EF91E00E940E1AAE014F5FAD
:102C80005F4FB601C8010E94A50C41E755E0BC01A9
:102C9000C8010E94830C6C014AE0BE016F5F7F4F48
:102CA000F701828593850E940E1AAE014F5F5F4F38
:102CB000B601C8010E94A50C43E455E0BC01C8015F
:102CC0000E94830CAE014F5F5F4FBC01C8010E94A0
:102CD000A50C4AE355E0BC01C8010E94830C6C01BD
:102CE0004AE0BE016F5F7F4F84E893E00E940E1AB6
:102CF000AE014F5F5F4FB601C8010E94A50C4CE2C8
:102D000055E0BC01C8010E94830C6C014AE0BE0181
:102D10006F5F7F4FF701808591850E940E1AAE018B
:102D20004F5F5F4FB601C8010E94A50C40E055E01F
:102D3000BC01C8010E94830CAE014F5F5F4FBC0114
:102D4000C8010E94A50C47EF54E0BC01C8010E94D5
:102D5000830C7C014AE0BE016F5F7F4F88E59BE1F9
:102D60000E940E1AAE014F5F5F4FB701C8010E946B
:102D7000A50C4CE854E0BC01C8010E94830C2696C7
:102D80000FB6F894DEBF0FBECDBFDF91CF911F917C
:102D90000F91FF90EF90DF90CF9008954F925F9248
:102DA0006F927F928F929F92AF92BF92CF92DF925B
:102DB000EF92FF920F931F93CF93DF9300D000D039
:102DC0001F92CDB7DEB74C0122E131E045E0BE01F4
:102DD0006F5F7F4F0E9416138823D9F0CE010196B2
:102DE0000E942F12882309F477C0CE0101960E9419
:102DF000C2196C0185EFC81681E0D80608F06CC0D6
:102E00009601ADE7B0E00E94B31944E00E941706B6
:102E10005B0128E131E045E0BE016F5F7F4FC401F7
:102E20000E9416138823D9F0CE0101960E942F121A
:102E3000882309F453C0CE0101960E94C2197C0177
:102E400089E5E8168BE1F80608F048C09701ADE780
:102E5000B0E00E94B31944E00E9417063B012EE146
:102E600031E045E0BE016F5F7F4FC4010E94161341
:102E70008823C1F0CE0101960E942F12882381F190
:102E8000CE0101960E94C2198C01053883E0180713
:102E900038F59801A3EAB1E00E94B3194BE00E9413
:102EA00017062B01B0925007A0924F07709252075D
:102EB000609251075092540740925307D0925607A0
:102EC000C0925507F0925807E092570710935A079F
:102ED0000093590780E005C081E003C082E001C093
:102EE00083E00F900F900F900F900F90DF91CF9194
:102EF0001F910F91FF90EF90DF90CF90BF90AF9018
:102F00009F908F907F906F905F904F900895DF9289
:102F1000EF92FF920F931F93CF93DF93EC01D62E86
:102F2000F42E0E946013BC01CE010E9481134DE675
:102F300054E0BC01CE010E94830C20915D073091CA
:102F40005E07EF2C0FEF1FEF44E654E0BC01CE010B
:102F50000E9485134AE054E0BC01CE010E94830C1C
:102F6000BC01FF2019F047ED53E002C04BE853E0ED
:102F7000CE010E94830CDD2069F042E653E0BC01E3
:102F8000CE01DF91CF911F910F91FF90EF90DF90D5
:102F90000C94830CDF91CF911F910F91FF90EF90D4
:102FA000DF90089580E090E020E030E061E070E0A4
:102FB000AB01082E02C0440F551F0A94E2F7242BE0
:102FC000352B01968C30910599F730934D0720935E
:102FD0004C0710925C0710925B0708958F929F92A6
:102FE000AF92BF92CF92DF92EF92FF920F93CF9367
:102FF000DF93CDB7DEB762970FB6F894DEBF0FBE92
:10300000CDBF7C015B014A010E9460134EED52E08E
:10301000BC01C7010E94830C6C010AE02EE244E06F
:10302000B401CE0101960E94C412AE014F5F5F4F02
:10303000B601C7010E94A50C48EA52E0BC01C701D5
:103040000E94830C6C0100E12EE246E0B501CE0146
:1030500001960E94C412AE014F5F5F4FB601C701D7
:103060000E94A50C4DE352E0BC01C7010E94830CF5
:1030700062960FB6F894DEBF0FBECDBFDF91CF9141
:103080000F91FF90EF90DF90CF90BF90AF909F9007
:103090008F900895AF92BF92CF92DF92EF92FF92FE
:1030A0000F93CF93DF93CDB7DEB762970FB6F89447
:1030B000DEBF0FBECDBF7C016B015A0126E231E0BD
:1030C00042E1BE016F5F7F4F0E94161381110DC058
:1030D00029E231E042E1BE016F5F7F4FC7010E94EC
:1030E000161381110DC091E017C004E02AE0A5017C
:1030F0006EE2CE0101960E943A128111E9CF0BC017
:1031000006E020E1A6016EE2CE0101960E943A128D
:1031100091E0811101C090E0892F62960FB6F8947A
:10312000DEBF0FBECDBFDF91CF910F91FF90EF902B
:10313000DF90CF90BF90AF9008958F929F92AF9203
:10314000BF92CF92DF92EF92FF920F93CF93DF93D4
:10315000CDB7DEB762970FB6F894DEBF0FBECDBF16
:103160007C014B016A010E94601344EF51E0BC01F5
:10317000C7010E94830C5C010AE02EE244E0B60124
:10318000CE0101960E94C412AE014F5F5F4FB501A0
:10319000C7010E94A50C4DEE51E0BC01C7010E9481
:1031A000830C5C0100E12EE246E0B401CE01019601
:1031B0000E94C412AE014F5F5F4FB501C7010E946C
:1031C000A50C48ED51E0BC01C7010E94830C5C01D5
:1031D0000AE02EE244E0B601CE0101960E94C4123C
:1031E000AE014F5F5F4FB501C7010E94A50C4BECCC
:1031F00051E0BC01C7010E94830C62960FB6F8949F
:10320000DEBF0FBECDBFDF91CF910F91FF90EF904A
:10321000DF90CF90BF90AF909F908F900895CF9305
:10322000DF93EC010E94601346E851E0BC01CE013F
:10323000DF91CF910C94830CCF92DF92EF92FF92AB
:103240000F931F93CF93DF93CDB7DEB728970FB6B9
:10325000F894DEBF0FBECDBF7C010E9460134FE724
:1032600051E0BC01C7010E94830C42E651E0BC0161
:10327000C7010E94830C6C014AE08E010F5F1F4F53
:10328000B80180913601909137010E940E1AF80121
:1032900001900020E9F731979F01201B310BA80115
:1032A000B601C7010E94950C44E451E0BC01C7017E
:1032B0000E94830C6C014AE0B80180913401909126
:1032C00035010E940E1AF80101900020E9F73197AC
:1032D0009F01201B310BA801B601C7010E94950C6C
:1032E00047E251E0BC01C7010E94830C6C014AE037
:1032F000B80180913201909133010E940E1AF801B9
:1033000001900020E9F731979F01201B310BA801A4
:10331000B601C7010E94950C4AE151E0BC01C7010A
:103320000E94830C6C014AE0B8010E940E1AF80159
:1033300001900020E9F731979F01201B310BA80174
:10334000B601C7010E94950C28960FB6F894DEBF0F
:103350000FBECDBFDF91CF911F910F91FF90EF90E6
:10336000DF90CF900895A29FB001B39FC001A39FAB
:10337000700D811D1124911DB29F700D811D1124AE
:10338000911D0895FC0188279927E8942191203206
:10339000E9F3293010F02E30C8F32B3241F02D32F2
:1033A00039F4689404C00E94191A820F911D21916A
:1033B00020532A30C0F31EF4909581959F4F0895B5
:1033C000FB01DC014150504030F08D910590801997
:1033D00019F40020B9F7881B990B0895FB01DC0153
:1033E00001900D920020E1F70895FB01DC014150AE
:1033F000504030F08D910190801919F40020B9F7F8
:10340000881B990B08954532510520F4423010F085
:103410000C940E1AFB011082CB010895BB274A3091
:1034200031F4992322F4BDE2909581959F4F0C943D
:10343000221A7AE0979F902D879F802D910D11245D
:103440000895BB27FB015527AA27880F991FAA1F9C
:10345000A41710F0A41B83955051B9F7A05DAA33AF
:1034600008F0A95DA193009779F7B111B19311927A
:10347000CB010C943B1ADC01FC01672F719177237F
:10348000E1F7329704C07C916D9370836291AE171F
:10349000BF07C8F30895DC01CB01FC01F999FECF09
:1034A00006C0F2BDE1BDF89A319600B40D924150CC
:1034B0005040B8F70895F999FECF92BD81BDF89AB2
:1034C000992780B50895A8E1B0E042E050E00C945F
:1034D0004D1ADC01A40FB51F4150504048F0CB01FC
:1034E000840F951F2E910E947A1A41505040D0F7B8
:1034F0000895262FF999FECF92BD81BDF89A0197C4
:1035000000B4021639F01FBA20BD0FB6F894FA9A2B
:10351000F99A0FBE08950196272F0E947A1A0C94EB
:06352000791AF894FFCFB8
:10352600500A4745542000636800706F730061635A
:10353600740077696474680064656C61790063750A
:0E3546007272656E74006970006D6163000042
:00000001FF
