:100000000C9473040C9413070C9490040C949004B7
:100010000C9490040C9455050C9490040C9490044A
:100020000C9490040C9490040C9490040C943E0551
:100030000C9490040C9492040C9490040C949004EE
:100040000C9490040C9490040C9490040C949004E0
:100050000C9490040C9490040C9490040C949004D0
:100060000C9490040C9490043F0A00737461740023
:10007000436F6C642052462072656D6F7465207307
:10008000776974636820532E4E2E20310A002A6946
:10009000646E3F0A002F002F3F002F69705F6D6173
:1000A00063002F69705F6D6163002F7365747469FD
:1000B0006E6773002F73657474696E6773002F73B6
:1000C000775F636F6E66002F6175746F5F64657430
:1000D000656374002F73775F636F6E66002F7377AD
:1000E0005F636F6E66002F002F72657365743F004B
:1000F0002F200044697361626C65640A0046616C7C
:1001000073650A00547275650A003C68323E436F9D
:100110006C64205246207377697463683C2F6832A0
:100120003E3C7072653E496E76616C696420766112
:100130006C75652E3C68723E3C6120687265663D58
:10014000222E223E5B486F6D655D3C2F613E002292
:100150003E5B486F6D655D3C2F613E003C68723EC2
:100160003C6120687265663D22687474703A2F2F76
:10017000000A4D41433A09003C68323E436F6C64CB
:10018000205246207377697463683C2F68323E3C86
:100190007072653E4E6574776F726B207365747410
:1001A000696E6773206170706C6965642073756334
:1001B0006365737366756C6C792E0A0A49503A0947
:1001C00000223E3C62723E0A3C696E707574207477
:1001D0007970653D7375626D69742076616C7565C3
:1001E0003D224170706C79223E3C2F666F726D3EED
:1001F0003C68723E3C6120687265663D222E223E5C
:100200005B486F6D655D3C2F613E093C6120687203
:1002100065663D222E2F69705F6D6163223E5B52E1
:100220006566726573685D3C2F613E00223E3C62EC
:10023000723E0A4D41433A093C696E7075742074F0
:100240007970653D746578742073697A653D3230E4
:10025000206E616D653D6D61632076616C75653DF5
:1002600022003C68323E436F6C6420524620737714
:10027000697463683C2F68323E0A3C68333E4E65C1
:1002800074776F726B2073657474696E67733C2F3B
:1002900068333E3C7072653E0A3C666F726D206149
:1002A0006374696F6E3D2F69705F6D6163206D656A
:1002B00074686F643D6765743E49503A093C696EE5
:1002C00070757420747970653D74657874207369F5
:1002D0007A653D3230206E616D653D6970207661D2
:1002E0006C75653D22000A3C6D657461206874740C
:1002F000702D65717569763D2272656672657368E9
:100300002220636F6E74656E743D2231223E003E82
:100310003C2F666F726D3E0A3C62723E0A3C687208
:100320003E3C6120687265663D222E223E5B486F2E
:100330006D655D3C2F613E093C6120687265663DDC
:10034000222E2F73775F636F6E66223E5B52656667
:10035000726573685D3C2F613E0A00646973616277
:100360006C65643E3C2F666F726D3E0A3C62723E65
:10037000427573792E2E2E0A3C68723E5B486F6D73
:10038000655D095B526566726573685D0A000A3CCB
:1003900062723E3C666F726D20616374696F6E3D80
:1003A0002F73775F636F6E662F6175746F5F64651F
:1003B00074656374206D6574686F643D6765743E31
:1003C0003C696E70757420747970653D7375626DEB
:1003D00069742076616C75653D224175746F206487
:1003E00065746563742220002F73775F636F6E6698
:1003F000003C68333E53776974636820636F6E66B0
:10040000696775726174696F6E3C2F68333E0A00CC
:100410003C62723E0A3C696E707574207479706536
:100420003D7375626D69742076616C75653D22411E
:1004300070706C79223E3C2F666F726D3E3C687224
:100440003E3C6120687265663D222E223E5B486F0D
:100450006D655D3C2F613E093C6120687265663DBB
:10046000222E2F73657474696E6773223E5B52652A
:1004700066726573685D3C2F613E00223E206D739D
:10048000203C3D00093C696E70757420747970657C
:100490003D746578742073697A653D35206E616DB1
:1004A000653D64656C61792076616C75653D2200FF
:1004B0003C62723E0A44656C61793A090900223E49
:1004C000206D41203C3D00093C696E7075742074BC
:1004D0007970653D746578742073697A653D35205F
:1004E0006E616D653D63757272656E742076616CC8
:1004F00075653D22003C62723E0A43757272656EFC
:10050000743A0900223E206D73203C3D00093C698D
:100510006E70757420747970653D7465787420739D
:10052000697A653D35206E616D653D7769647468F3
:100530002076616C75653D22003C68323E436F6CED
:1005400064205246207377697463683C2F68323E9A
:100550000A3C68333E50756C736520706172616D42
:1005600065746572733C2F68333E3C7072653E0A59
:100570003C666F726D20616374696F6E3D2F7365A9
:100580007474696E6773206D6574686F643D676528
:10059000743E57696474683A090900223E003300CA
:1005A00031000A3C6D65746120687474702D65714A
:1005B0007569763D22726566726573682220636F85
:1005C0006E74656E743D22000A3C2F7072653E3C6D
:1005D00068723E4E2E20416272616D6F762C203221
:1005E0003031362E204261736564206F6E203C628C
:1005F0003E74757867726170686963733C2F623E00
:10060000205443502F495020737461636B2E000AAD
:100610003C62723E3C6120687265663D222E2F73FB
:10062000657474696E6773223E5B50756C736520E8
:10063000706172616D65746572735D3C2F613E0916
:100640003C6120687265663D222E2F73775F636F71
:100650006E66223E5B53776974636820636F6E66D3
:10066000696775726174696F6E5D3C2F613E0A3C0B
:1006700062723E3C6120687265663D222E2F697071
:100680005F6D6163223E5B495020616E64204D4185
:10069000435D3C2F613E093C6120687265663D22E6
:1006A0002E223E5B526566726573685D3C2F613E2B
:1006B0000A3C62723E000A3C62723E5B50756C738B
:1006C0006520706172616D65746572735D095B535D
:1006D000776974636820636F6E66696775726174A9
:1006E000696F6E5D0A3C62723E5B495020616E64C8
:1006F000204D41435D095B526566726573685D0A12
:100700003C62723E427573792E2E2E003E3C2F665F
:100710006F726D3E090064697361626C65640022EA
:100720003E3C696E70757420747970653D737562B6
:100730006D69742076616C75653D225265736574D0
:1007400022003C666F726D20616374696F6E3D2F8D
:100750007265736574206D6574686F643D67657458
:100760003E3C696E70757420747970653D6869648B
:1007700064656E206E616D653D63682076616C75A1
:10078000653D22000A3C62723E202009002F000ACB
:10079000003C7374796C653E666F726D7B6469733F
:1007A000706C61793A20696E6C696E652D626C6F50
:1007B000636B3B7D3C2F7374796C653E0A000920A6
:1007C0002020200031223E5B785D3C2F613E0030CE
:1007D000223E5B4F4E5D3C2F613E00266163743DBF
:1007E000002663683D003F706F733D00093C612047
:1007F000687265663D222E00092020202000095BDA
:10080000785D00095B4F4E5D000A200009436800D7
:100810003C7072653E202020003C68323E436F6C85
:1008200064205246207377697463683C2F68323EB7
:10083000000D0A436F6E74656E742D547970653ABD
:1008400020746578742F68746D6C0D0A507261673E
:100850006D613A206E6F2D63616368650D0A0D0A44
:10086000333031204D6F766564205065726D616E56
:10087000656E746C793C2F68313E0A0048545450C0
:100880002F312E3020333031204D6F76656420506B
:1008900065726D616E656E746C790D0A4C6F636183
:1008A00074696F6E3A2000485454502F312E302016
:1008B000323030204F4B0D0A436F6E74656E742DCD
:1008C000547970653A20746578742F68746D6C0D76
:1008D0000A507261676D613A206E6F2D63616368C3
:1008E000650D0A0D0A0011241FBECFEFD8E0DEBF50
:1008F000CDBF11E0A0E0B1E0EAE0F0E302C0059076
:100900000D92AE32B107D9F727E0AEE2B1E001C0F7
:100910001D92A734B207E1F70E94850C0C940318CE
:100920000C9400001F920F920FB60F9211248F9318
:100930009F93AF93BF9380912E0190912F01A0912F
:100940003001B09131010197AF4FBF4F80932E011D
:1009500090932F01A0933001B0933101BF91AF91DB
:100960009F918F910F900FBE0F901F901895E1E807
:10097000F0E0808185608083EFE6F0E08081816037
:1009800080830895209184003091850080912E010C
:1009900090912F01A0913001B0913101BC01CD01A6
:1009A000620F731F811D911D0895CF92DF92EF9208
:1009B000FF920F931F936B017C010E94C2048B0175
:1009C0009C010C191D092E093F096C157D058E052A
:1009D0009F0538F4C901B801615071098109910975
:1009E00002C0C901B8011F910F91FF90EF90DF90F5
:1009F000CF900895CF92DF92EF92FF920F931F93C3
:100A00004423A9F10FEF1FEF9801042E04C0000F3B
:100A1000111F221F331F0A94D2F7009510952095BD
:100A2000309506231723282339235FEF540FE1E085
:100A3000F0E06F0102C0CC0CDD1C5A95E2F70D2CE2
:100A4000000CEE08FF08DC01CB0104C0B695A795A9
:100A5000979587954A95D2F7BC01CD01C016D1066E
:100A6000E206F30620F46F5F7F4F8F4F9F4F1F9179
:100A70000F91FF90EF90DF90CF9008951F920F920B
:100A80000FB60F9211248F93EF93FF93419A4198E1
:100A9000EFE6F0E080818D7F8083FF91EF918F9171
:100AA0000F900FBE0F901F9018951F920F920FB6C8
:100AB0000F9211248F9381E080932C078F910F90D8
:100AC0000FBE0F901F90189580E090E00E94CD1708
:100AD00090913107890F8093B40008954CE050E065
:100AE00065E070E08DE297E00E94BD1783E090E042
:100AF0000E94D51790932B0780932A0781E090E0FE
:100B00000E94D51790933C0780933B07089587E098
:100B100087B9539AE0EBF0E0808183608083808125
:100B2000806280831092B400E1EBF0E0808181600C
:100B30008083E9E6F0E0808182608083E89AEDE6D8
:100B4000F0E08081806180830E946E050C946405D2
:100B50004CE050E065E070E08DE297E00E94DB172A
:100B600060912A0770912B0783E090E00E94FD17A7
:100B700060913B0770913C0781E090E00C94FD1779
:100B8000660F5CE0859F600D1124442311F04098AE
:100B900001C0409A429A429887E190E070E09B0140
:100BA0002F5F3F4F6817790711F4411103C02817D1
:100BB000390711F4409A01C04098429A429801972F
:100BC00088F710922C07DA9A8091680084608093ED
:100BD0006800209184003091850080912D079091CC
:100BE0002E07820F931F9093890080938800419A6B
:100BF000419889E14098429A42988150D9F782E021
:100C000086BB80916F00826080936F0080916F003F
:100C100081FDFCCF809168008B7F8093680080917C
:100C20002C070895EF92FF921F93CF93DF93182F15
:100C3000E0913907F0913A07A0912A07B0912B076C
:100C400090E080E0EE24E394F12C60E0292F260F61
:100C5000E70102C0CC0FDD1F2A95E2F79E012E238B
:100C60003F23AE014A235B232115310579F041155D
:100C7000510561F441E00E94C0058823B1F18091E3
:100C80002A0790912B07C82BD92B11C0452B11F1A6
:100C9000232B01F540E00E94C005882371F0C09528
:100CA000D09580912A0790912B07C823D923D09300
:100CB0002B07C0932A0781E019C01123B1F02091BE
:100CC000390730913A07C22BD32BD0933A07C09300
:100CD00039070CC06F5F663009F0B8CF8F5F9A5F3D
:100CE000823009F0B2CF82E001C080E0DF91CF9185
:100CF0001F91FF90EF900895CF92DF92EF92FF92B5
:100D0000CF93DF93EC01662361F00E94C2046093ED
:100D1000320170933301809334019093350121E0C7
:100D200014C060913201709133018091340190912F
:100D300035010E94D5046E01E12CF12C21E06C15E7
:100D40007D058E059F0508F420E0822FDF91CF916D
:100D5000FF90EF90DF90CF9008950F93DC01862FE6
:100D6000880F860F880F840FED91FC911197222335
:100D7000F1F021E030E0A90102C0440F551F8A952F
:100D8000E2F7CA019A012E2B3F2B0023D9F056E03F
:100D9000659FB0011124EFE3F0E002C0EE0FFF1FEA
:100DA0006A95E2F7E095F095E82BF92B09C021E070
:100DB00030E002C0220F331F8A95E2F7209530956C
:100DC0002E233F232D933C930F91089526E0629F9D
:100DD000B00111242FE330E002C0220F331F6A95C7
:100DE000E2F720953095FC01408151812423352381
:100DF000318320830895CF92DF92EF92FF920E9479
:100E0000C2046B017C01C701B6010E94D5046032A7
:100E1000734081059105B8F74A9BF1CFFF90EF90A1
:100E2000DF90CF9008951F920F920FB60F9211246A
:100E30002F933F934F935F936F937F938F939F93E2
:100E4000AF93BF93EF93FF930E94A8050E94FB0608
:100E5000FF91EF91BF91AF919F918F917F916F9192
:100E60005F914F913F912F910F900FBE0F901F9068
:100E700018952A98962F9F71892B8EBD0DB407FE69
:100E8000FDCF1EBC0DB407FEFDCF67FD03C02A9A3F
:100E90008EB508951EBC0DB407FEFDCFF8CF2A987D
:100EA0006F71862B8EBD0DB407FEFDCF4EBD0DB408
:100EB00007FEFDCF2A9A0895FB012A982AE32EBD4A
:100EC0000DB407FEFDCF8E0F9F1FE817F90739F00D
:100ED0001EBC0DB407FEFDCF2EB52193F6CF1082B8
:100EE0002A9A08952A982AE72EBD0DB407FEFDCF51
:100EF000860F971F6817790741F0FB012191BF0109
:100F00002EBD0DB407FEFDCFF5CF2A9A08951F938D
:100F1000CF93DF93182F1076C12FD0E08091380146
:100F200090E0C817D90789F043E06FE180EA0E949A
:100F30004F07AE0185E0559547958A95E1F76FE13A
:100F400080E80E944F0710933801DF91CF911F91E5
:100F50000895CF93C82F0E9487076C2F80E0CF9110
:100F60000C943907CF93DF93C82FD62F0E948707A1
:100F70004D2F6C2F80E4DF91CF910C944F07CF93CE
:100F8000DF93D62FC72F682F84ED0E94B2076D2FF5
:100F900086ED0E94B2076C2F87ED0E94B207C8E26F
:100FA0008AEE0E94A90780FF04C08C2F8A95F1F772
:100FB000F7CFDF91CF910895682F677085E70C9484
:100FC000B207CF93DF93EC01688184EE0E94B207F1
:100FD000698185EE0E94B2076A8182EE0E94B207A3
:100FE0006B8183EE0E94B2076C8180EE0E94B20793
:100FF0006D8181EEDF91CF910C94B207CF93DF9397
:10100000EC01229A2A9A84B1886284B924982B9898
:101010002D9880E58CBD8DB581608DBD8DB58260CC
:101020008DBD4FEF60E08FEF0E944F0780E090E0B2
:101030000197F1F7109237011092360160E088E0D5
:101040000E94B20760E089E00E94B20760E08CE095
:101050000E94B20760E08DE00E94B2076FEF8AE065
:101060000E94B20769E18BE00E94B20760E084E071
:101070000E94B2076AE185E00E94B2076FEF86E046
:101080000E94B2076FE187E00E94B20760EB88E33D
:101090000E94B2076FE388E20E94B20760E389E230
:1010A0000E94B20769EF80E30E94B20767EF81E315
:1010B0000E94B2076DE080EC0E94B20760E081EC14
:1010C0000E94B20742E362EC80E80E944F0762E1AF
:1010D00086EC0E94B2076CE087EC0E94B20762E1E6
:1010E00084EC0E94B2076CED8AEC0E94B20765E0C6
:1010F0008BEC0E94B207CE010E94E10760E071E034
:1011000080E10E94BF078FE10E94870740EC6BE1FE
:1011100080E80E944F0744E06FE180E8DF91CF91C3
:101120000C944F070F931F93CF93DF93EC018B0128
:101130006FE180E00E94390783FDFACF8CE10E94C5
:10114000A90781FF13C040E86FE180E80E944F07C4
:1011500040E86FE180EA0E944F0742E06CE180EADC
:101160000E944F0780E395E70197F1F760E082E086
:101170000E94B2076AE183E00E94B2076C2F86E00A
:101180000E94B207CE01965E692F87E00E94B207E7
:1011900040E060E08AE70E944F07B801CE010E945C
:1011A000720748E06FE180E8DF91CF911F910F91C6
:1011B0000C944F079F92AF92BF92CF92DF92EF9223
:1011C000FF920F931F93CF93DF936C017B0189E311
:1011D0000E94A907882309F45AC060913601C09182
:1011E000370180E00E94B2076C2F81E00E94B207B5
:1011F00060E08AE30E943907082F60E08AE30E94DA
:10120000390710E0182B109337010093360160E086
:101210008AE30E943907C82F60E08AE30E943907F9
:10122000982E60E08AE30E943907A82E60E08AE3E6
:101230000E943907A7FE0EC0C6010197D0E0D92948
:1012400024978C179D0708F4EC01B701CE010E948A
:101250005C0702C0C0E0D0E06FEF01308AE1180700
:101260002CF08CE00E94B20769E107C0600F8CE0AF
:101270000E94B207C8010197692F8DE00E94B20752
:1012800040E46EE180E80E944F07CE0102C080E09A
:1012900090E0DF91CF911F910F91FF90EF90DF9041
:1012A000CF90BF90AF909F9008950F931F93CF93CF
:1012B000DF93FC019B01413051F4AB0148505109CF
:1012C00060E070E04F5E5F4F6F4F7F4F0FC0423066
:1012D00051F4AB014850510960E070E04A5F5F4F44
:1012E0006F4F7F4F03C040E050E0BA01C901EF01EA
:1012F0008230910558F0A991B991BA27AB27BA2746
:101300004A0F5B1F611D711D0297F2CFC9018E7FCD
:10131000E80FF91F2817390761F0808190E0A0E0FD
:10132000B0E0BA2FA92F982F8827480F591F6A1F9E
:101330007B1F8B012227332701151105210531055C
:1013400039F066277727400F511F621F731FF1CFB7
:10135000CA0180959095DF91CF911F910F910895CB
:10136000FC01892B39F096E0A2E4B1E001900D92E6
:101370009A95E1F7089569327105A0F0FC01248582
:10138000283081F42585263069F4B696AEE3B1E0C5
:101390008A9631912D91321305C0E817F907C9F7E4
:1013A00081E0089580E00895CF93DF93FC016A32D5
:1013B0007105B8F084858830A1F48585811111C04C
:1013C0009685953479F4DF015E96CEE3D1E0B2964E
:1013D0002D919991291306C0AE17BF07C9F781E077
:1013E00001C080E0DF91CF910895FC01A2E4B1E05B
:1013F0000696268121932D912583E817F907C9F7D1
:101400000895CF93DF93EC01188E198E80E48C8BB6
:101410001D8A8E8B40E064E170E0CE010E960E9442
:101420005509988F898FDF91CF910895AEE3B1E090
:10143000FC017A969C01225E3F4F408144834D918E
:101440004193E217F307C9F70C94010AFC01BA961D
:1014500086962291620F711D24816483442311F0CA
:10146000208301C01082672F77278E179F0789F787
:101470000895CF93DF93EC018CA19AA19CA38AA33A
:101480008DA19BA19DA38BA3CE010E94260A1AAA1F
:101490001BAA80E58EA7DF91CF910895CF93DF93AC
:1014A000EC010E94F5091C8A82E08D8B82E491E0B8
:1014B000AE014A5E5F4FFE017C96DA012C911A96CE
:1014C0002C93DC012D91CD01DA012D93AD01AE17E6
:1014D000BF0799F7AEE3B1E0CE0180962081228765
:1014E0002D912193E817F907C9F7BE018AE290E030
:1014F000DF91CF910C9492080F931F93CF93DF93BA
:10150000EC018B010E94F509CE010E94160A1AA275
:101510008CA1883F18F09DA19F5F9DA3885F8CA33D
:10152000BE01C801DF91CF911F910F910C949208D9
:10153000FC012089318932272327322724513109A0
:1015400086A582958F70A90164E0869F4019510994
:101550001124CA0157FF02C080E090E00895DB012A
:10156000D696A80FB91FFA01641B750B9B012E0FAD
:101570003F1F94913196992311F09D93F7CFC901A4
:101580000895FA01DB01D696A80FB91F822F882390
:1015900021F091919D938150FACFCB01820F911D43
:1015A0000895FA0101900020E9F731979F01241B6B
:1015B000350B0C94C10AFF920F931F93CF93DF93C7
:1015C000EC018B01F42E0E94F5098F2D80618FA70D
:1015D00084E0F81629F00115110511F401E010E07E
:1015E00041E0B801CE010E94390A188A88E2898B4D
:1015F000CE010E94160A84E088AB19AA42E06CE191
:1016000070E0CE014A960E9455099AAB8BABBE01A1
:1016100086E390E0DF91CF911F910F91FF900C94A2
:1016200092080F931F93CF93DF93EC018B01CB01B3
:101630008896988B898BCE010E94010A1AAA1BAA50
:10164000B801645E7F4F42E0CE014A960E94550980
:101650009AAB8BABBE01C801C696DF91CF911F91AB
:101660000F910C9492086115710519F4009759F4C3
:101670000895FB01AEE3B1E021912D9321E0A23466
:10168000B207D1F7F3CF0C94B00990933B0180934C
:1016900000010895CF93DF93EC010E94F509188AA9
:1016A0008CE2898BCE010E94160A82E18FA740E06E
:1016B00061E070E0CE010E94390A1EA21FA2809153
:1016C000010188A719A68D5F8093010182E08EAB8E
:1016D00084E08FAB85E088AF19AE80E68EA78AE004
:1016E00088AB19AA42E060E270E0CE014A960E94FF
:1016F00055099AAB8BABBE018AE390E0DF91CF91A5
:101700000C949208FF920F931F93CF93DF93EC01F9
:101710008B01F42E6091390170913A0140E00E94F2
:10172000DB0AFF2011F089E101C088E18FA7B80131
:10173000CE01DF91CF911F910F91FF900C94110B6F
:10174000DF92EF92FF920F931F93CF93DF937C0171
:101750008B010E94BB09882349F0F70185898130FC
:1017600009F053C0C7010E944E0A4FC0B801C7011B
:101770000E94D409882309F448C0F7018789813081
:1017800089F482A1883071F4E0913C01F0913D012F
:10179000309719F0C7014A960995B801C7010E9410
:1017A0007C0A33C0F70194A180913B0198132DC0AE
:1017B00095A180910001981328C0D7A4D1FE04C040
:1017C000C7010E944A0B21C0D4FE1FC0C7010E945E
:1017D000980AEC0190933A0180933901892B49F4DE
:1017E000D0FE13C040E060E070E0C7010E94DB0A59
:1017F0000EC0F701C6A5C295CF70F4E0CF9FE001FF
:101800001124A2960C171D0710F4C0E0D0E0CE0101
:10181000DF91CF911F910F91FF90EF90DF9008958E
:1018200081E497E00E94E1076DE377E081E497E0CF
:101830000C94330BCF92DF92EF92FF920F931F9392
:1018400068017901FC012081862F90E0622F70E011
:101850006823792380914C01672BA1F581110DC07C
:1018600040934C010E94C204609348017093490167
:1018700080934A0190934B0102C0841711F081E0DC
:101880003DC00E94C204009148011091490120917D
:101890004A0130914B01DC01CB01801B910BA20B63
:1018A000B30B8C159D05AE05BF0548F30E94C2041D
:1018B000609348017093490180934A0190934B01D2
:1018C00082E01CC0481711F080E018C00E94C204DA
:1018D000009148011091490120914A0130914B013A
:1018E000DC01CB01801B910BA20BB30B8C159D056A
:1018F000AE05BF0548F310924C0183E01F910F9194
:10190000FF90EF90DF90CF900895F8940E94B70475
:101910000E94FB06C0E08C2F8A95F1F744E050E06E
:1019200067E170E08DE397E00E94BD1746E050E06C
:1019300061E170E081E497E00E94BD1781E497E0E7
:101940000E94FE0782E00E94DC07CA95F1F766E775
:1019500074E084E10E94BF076DE377E081E497E0E3
:101960000E94330B80E590E00E94450B2098289A56
:101970000E9487057894B12CD0E0C0E00DE81BE50B
:1019800020E030E041E061E083E290E00E941A0C48
:10199000823029F5B11010C244E050E06BE170E0F4
:1019A0008DE397E00E94BD1746E050E06FE170E0E4
:1019B00081E497E00E94BD1744E050E067E170E0E9
:1019C0008DE397E00E94DB1746E050E061E170E0B4
:1019D00081E497E00E94DB170E94100CEDC1B1106A
:1019E000EBC18FEF8C0F833088F58EEF8C0F823038
:1019F00010F481E001C080E00E941206813071F095
:101A000018F0823089F02EC0C13041F480912A074D
:101A100090912B0790933A078093390761E080E01B
:101A200090E00E947C0614C0C23009F0D5C18091BC
:101A30002A0790912B078095909590933C0780936F
:101A40003B0710922B0710922A07C6C1C43051F4ED
:101A500060E080912F07909130070E947C068111F1
:101A6000BEC1C4E06DE471E08CED95E00E94DA083F
:101A700010922907BC018DE491E00E94A00B7C012B
:101A8000009709F47BCF835B9E4F6C0144E050E0EC
:101A9000BC0182E091E00E946717892B09F014C114
:101AA00087010F5A1E4F42E050E060EF70E0C8011E
:101AB0000E945217892B51F4CC2311F061E001C030
:101AC00060E08DE491E00E94A012FCC047E050E08D
:101AD00068EE70E0C8010E945217892B61F4C111B1
:101AE00007C0C8010E94AB13882311F0D3E0C3E004
:101AF00066EE70E0E3C048E050E06DED70E0C801D4
:101B00000E945217892BA9F5C701875A9E4FFC01E5
:101B10002081203281F4D23019F441E061E006C026
:101B2000C11102C040E001C041E060E08DE491E0FD
:101B30000E949015C7C02F3359F4C11106C040E070
:101B40006BE377E0C8010E944D1364ED70E0B6C00E
:101B50004BE050E067EC70E00E945217892B49F48B
:101B6000C11104C00E94DB15D2E0C2E06EEB70E050
:101B7000A5C049E050E064EB70E0C8010E94521734
:101B8000892BB9F4F6018585803229F48DE491E042
:101B90000E94001497C08F3361F4C11107C0C801BF
:101BA0000E94D714811102C00E9464056AEA70E0A5
:101BB00085C047E050E062EA70E0C8010E94521719
:101BC000892B09F043C0F6018385803249F44DE347
:101BD00057E061E477E08DE491E00E94F71572C070
:101BE0008F33A1F5C1112FC04DE357E061E477E0D9
:101BF000C8010E945316882309F144E050E067E1D0
:101C000070E08DE397E00E94DB1746E050E061E171
:101C100070E081E497E00E94DB174DE357E061E458
:101C200077E08DE491E00E94A61641E0BC018DE4CE
:101C300091E00E94820B0E94100CA0CE8DE491E0F6
:101C40000E9418173FC06AE970E038C0C11134C063
:101C500042E050E067E970E0C8010E945217892B0A
:101C600059F580912A0790912B0790933A0780931A
:101C7000390741E069E377E0C8010E944D138823EA
:101C800071F02091390730913A0780913B0790918C
:101C90003C078223932390933A078093390720913E
:101CA000390730913A0780912A0790912B0728171E
:101CB000390711F0D1E0C1E065E970E08DE491E011
:101CC0000E946F1141E072C04FEF6AE0C6010E94AE
:101CD00009118F3F09F452CE46E050E06EE870E003
:101CE000C6010E945217892B49F440E750E060E09A
:101CF00070E08DE491E00E94AF0A57C044E050E0EC
:101D00006BE670E0C6010E945217892B09F049C0AA
:101D100087010F5A1E4F42E050E068E670E0C801AC
:101D20000E945217811107C06AE277E08DE491E0CA
:101D30000E94370F3AC0F8018081803291F580917E
:101D40002A0790912B0790933A078093390769E30C
:101D500077E0C7018E5A9E4F0E94030F882309F136
:101D60002091390730913A0780913B0790913C07C9
:101D70008223932390933A078093390720912A076F
:101D800030912B078217930739F08DE491E00E9480
:101D9000F10ED1E0C1E009C08DE491E00E94FD0E9A
:101DA00004C08DE491E00E94F70E40E0BC018DE498
:101DB00091E00E94820BE2CD01E010E020E030E0F3
:101DC00041E061E083E290E00E941A0CBB24B394EE
:101DD000811107CEB12C05CED0E0C0E043CECD2F8F
:101DE00041CE44E051E060E070E00C94AF0A4DEF6A
:101DF00050E060E070E00C94AF0A43EF50E060E028
:101E000070E00C94AF0AEF92FF920F93CF93DF93A1
:101E100000D0CDB7DEB77B0102E02AE0AE014F5F14
:101E20005F4F6CE20E9443108823C9F089816FEFF5
:101E3000680F623098F49A814FEF490F463030F4C2
:101E400001E021E0C7010E94AD0606C0911106C065
:101E5000682FC7010E94E60681E001C080E00F9074
:101E60000F90DF91CF910F91FF90EF9008954F92D7
:101E70005F926F927F928F929F92AF92BF92CF921A
:101E8000DF92EF92FF920F931F93CF93DF93CDB723
:101E9000DEB72D970FB6F894DEBF0FBECDBF5C0145
:101EA0004B01E12CF12CCC24C394D12C512C8E016C
:101EB000075F1F4F9CE2492E66246394712C4AE011
:101EC000B801C6010E948017B80181E090E08C0F34
:101ED0009D1F850D911D0E946017F8010190002043
:101EE000E9F73197E01BF10B5E0EE1E0F0E0EC0F5B
:101EF000FD1FE50DF11D40825394F4016081718155
:101F0000970180E0A301022E02C0440F551F0A94DE
:101F1000E2F7462357238F5F452B29F42F5F3F4F6E
:101F2000863081F780E04AE0B80190E00E94801797
:101F3000B80181E090E08C0F9D1F850D911D0E94DE
:101F40006017F80101900020E9F73197E01BF10BD1
:101F50005E0EE1E0F0E0EC0FFD1FE50DF11D4082AB
:101F60005394FFEFCF1ADF0A86E0E80EF11CECE095
:101F7000EE16F10409F0A3CFFE01E50DF11D10826C
:101F8000AE014F5F5F4F60E070E0C5010E94D10A73
:101F90002D960FB6F894DEBF0FBECDBFDF91CF9167
:101FA0001F910F91FF90EF90DF90CF90BF90AF9077
:101FB0009F908F907F906F905F904F90089590EDDD
:101FC000980F9A3060F09FE9980F963010F487557B
:101FD00008959FEB980F963020F487530895892F2A
:101FE000089580E008959F92AF92BF92CF92DF92C2
:101FF000EF92FF920F931F93CF93DF936C01FC013D
:1020000001900020E9F73197E81BF90B9E2E00E0C4
:1020100010E0AA24A394B12CE12CF12CEF01DD27D0
:102020000915C8F4FE01E01BF10BEC0DFD1D319705
:1020300080810E94DF0F282F2A9DC0012B9D900DCB
:102040001124E80EF91E84E0AA0CBB1C8A95E1F766
:102050000F5F1F4FE5CFC701DF91CF911F910F9108
:10206000FF90EF90DF90CF90BF90AF909F9008953A
:10207000FC019191992329F090539A30D0F380E09C
:10208000089581E00895BF92CF92DF92EF92FF9280
:102090000F931F93CF93DF9300D000D0CDB7DEB75F
:1020A000B62E6A01122F7C01FC0190E080E02191A4
:1020B00030ED320F323058F03A3010F4123039F43B
:1020C000322F3F7D3154363080F4103171F48F5F00
:1020D000813069F3123009F44FC0843008F04CC0ED
:1020E000833029F7103119F747C02B1107C09F5FC4
:1020F000901708F041C08111D9CF3EC0222311F0C2
:102100002A30D1F58823C1F19F5F091335C000E063
:1021100020E0F70131917F01822F90E0B31621F08A
:10212000332311F03A30F9F4E1E0F0E0EC0FFD1F59
:10213000E80FF91F1082CE010196103119F40E94A8
:10214000F30F06C00E9434178F3F910509F0A4F4E5
:10215000F601E00FF11D8083F70131978081B812FD
:102160000DC00F5FD5CFE1E0F0E0EC0FFD1FE80FF1
:10217000F91F30832F5FCDCF80E001C081E00F9049
:102180000F900F900F90DF91CF911F910F91FF90C3
:10219000EF90DF90CF90BF900895AF92BF92CF9213
:1021A000DF92EF92FF920F931F93CF93DF936C0117
:1021B000D22F7B015B01A40EB11CC0E010E0AE1475
:1021C000BF04B9F0F70181917F01A801B6016C0F3E
:1021D000711D90E00E947517F601EC0FF11D8081D2
:1021E000882311F0CF5FF8CFDD2349F3D083CF5F91
:1021F000E6CFC150F601EC0FF11D1082DF91CF91B7
:102200001F910F91FF90EF90DF90CF90BF90AF9014
:102210000895FC0120E030E050E09081961769F0CD
:102220002417350754F48FEB890F8A3110F4905E30
:1022300090832F5F3F4F3196F0CF822F0895CF9339
:10224000DF93D901F90130E0EC012881522F5F7D45
:1022500041F43130D1F5FC01DB0150E0415051092E
:102260002DC02D30B1F33111F4CF508125131AC098
:10227000EA17FB0739F4EC01219728812F3311F07D
:10228000263289F42181222311F031960CC0EC0111
:10229000219631E0FC0181818D3309F030E0FD01B0
:1022A000CE0101C0FD010196CFCF8D3069F086329D
:1022B00059F030E0241735073CF48D932A2F261B64
:1022C0008191982F9F7D89F71C9281E0DF91CF91BA
:1022D000089547EA58E060E070E00C94AF0A0F936D
:1022E0001F93CF93DF93EC018B014CE758E060E044
:1022F00070E00E94AF0AA801BC01CE010E94AF0AA3
:1023000041E358E0BC01CE01DF91CF911F910F91C5
:102310000C94AF0A49E158E00C94AF0A2F923F9217
:102320004F925F926F927F928F929F92AF92BF92E5
:10233000CF92DF92EF92FF920F931F93CF93DF9391
:10234000CDB7DEB72D970FB6F894DEBF0FBECDBF69
:102350006C015A87498729011C870B87ED8640E16C
:1023600058E00E94AF0A8C01AA24A394B12CCE019C
:1023700001967C014AE0B701C5010E9480174CE03C
:1023800058E0B801C6010E94AF0AF7010190002091
:10239000E9F731979F012E193F09A701BC01C6013A
:1023A0000E94C10A8C019FEFA91AB90A23E0A21664
:1023B000B10401F7A12CB12C49E058E0B801C601E5
:1023C0000E94AF0A8C0115018FEF281A380A4AE0E3
:1023D000B701C1010E948017F70101900020E9F7C1
:1023E00031979F012E193F09A701B801C6010E942C
:1023F000C10A8C0188248394912C66246394712CE7
:102400000A2C02C0660C771C0A94E2F78B859C8527
:10241000862197212D85222379F0892B51F0642084
:102420007520672819F043E058E05AC04EEF57E096
:1024300057C048EF57E054C0892B09F44FC04CEE09
:1024400057E0B801C6010E94AF0A49855A85BC0110
:10245000C6010E94AF0A46EE57E0BC01C6010E94C9
:10246000AF0A8C014AE0B701C1010E948017F70151
:1024700001900020E9F731979F012E193F09A7012C
:10248000B801C6010E94C10A41EE57E0BC01C60175
:102490000E94AF0A8C014AE0B701C4010E94801774
:1024A000F70101900020E9F731979F012E193F09AC
:1024B000A701B801C6010E94C10A4BED57E0BC015B
:1024C000C6010E94AF0ABC0164207520672819F07C
:1024D0004FEC57E006C044EC57E003C04EEB57E02A
:1024E000B801C6010E94AF0A8C0186E0A80EB11C9B
:1024F0009FEF891A990A23E08216910409F07DCF93
:10250000510186E02816310409F056CFC8012D96F6
:102510000FB6F894DEBF0FBECDBFDF91CF911F91F4
:102520000F91FF90EF90DF90CF90BF90AF909F9072
:102530008F907F906F905F904F903F902F90089575
:102540009F92AF92BF92CF92DF92EF92FF920F9342
:102550001F93CF93DF93CDB7DEB728970FB6F894CC
:10256000DEBF0FBECDBF6C01962E0E94691141E9FE
:1025700057E0BC01C6010E94AF0ABC01C6010E941F
:102580008A114FE857E0BC01C6010E94AF0A0091D2
:102590003B0710913C0720912A0730912B07E92C2B
:1025A0004DE857E0BC01C6010E948E1144E857E097
:1025B000BC01C6010E94AF0ABC0101E010E0CE01DF
:1025C00001967C0142E457E0C6010E94AF0A5C011B
:1025D0004AE0B701C8010E948017F701019000206E
:1025E000E9F731979F012E193F09A701B501C601EF
:1025F0000E94C10A4FE157E0BC01C6010E94AF0A28
:10260000992031F046E157E0BC01C6010E94AF0AB3
:102610004CE057E0BC01C6010E94AF0ABC010F5F4D
:102620001F4F0330110571F6992019F046EB56E063
:1026300002C04FE056E0C6010E94AF0A48EC55E0E8
:10264000BC01C6010E94AF0A42EA55E0BC01C601C6
:102650000E94AF0ABC01992019F040EA55E002C07F
:102660004EE955E0C6010E94AF0A4BE955E0BC01B6
:10267000C6010E94AF0A28960FB6F894DEBF0FBEBF
:10268000CDBFDF91CF911F910F91FF90EF90DF9021
:10269000CF90BF90AF909F900895AF92BF92DF927E
:1026A000EF92FF920F931F93CF93DF9300D01F926F
:1026B000CDB7DEB77C015B01042F27E031E043E0BA
:1026C000BE016F5F7F4F0E941F11811102C080E029
:1026D00035C0CE0101960E9434171FEF180F12303B
:1026E000B0F72AE031E043E0BE016F5F7F4FC701E2
:1026F0000E941F11882359F3CE0101960E943417BE
:10270000DD24DA94D80E85E08D1508F32EE031E053
:1027100043E0BE016F5F7F4FC7010E941F118823F6
:10272000B1F2CE0101960E943417823080F6282F34
:102730004D2D612FC5010E94AD0681E00F900F90D5
:102740000F90DF91CF911F910F91FF90EF90DF904D
:10275000BF90AF9008950F931F93CF93DF9300D056
:102760001F92CDB7DEB727E031E043E0BE016F5FD7
:102770007F4F0E941F118823D9F1CE0101960E943C
:1027800034178150823098F5982F990F890F880F50
:1027900040912A0750912B079A0160E070E090E089
:1027A000A1E0B0E0FC01E60FF71F8D0102C0000FB1
:1027B000111FEA95E2F7F801202B312BE095F095F7
:1027C0004E235F236F5F7F4F6630710559F750933B
:1027D0003A074093390780913B0790913C072823A3
:1027E000392330932B0720932A0781E001C080E032
:1027F0000F900F900F90DF91CF911F910F9108953F
:10280000CF92DF92EF92FF920F931F93CF93DF93BC
:1028100000D000D000D0CDB7DEB78C010E94691186
:1028200049E355E0BC01C8010E94AF0A6C018DE28A
:10283000E82E87E0F82E4AE0BE016F5F7F4FF70178
:10284000868197810E948017AE014F5F5F4FB6016E
:10285000C8010E94D10A4DE055E0BC01C8010E94A8
:10286000AF0AAE014F5F5F4FBC01C8010E94D10AA1
:1028700044E055E0BC01C8010E94AF0A6C014AE087
:10288000BE016F5F7F4F84EF91E00E948017AE0121
:102890004F5F5F4FB601C8010E94D10A45EF54E077
:1028A000BC01C8010E94AF0A6C014AE0BE016F5F23
:1028B0007F4FF701828593850E948017AE014F5F9D
:1028C0005F4FB601C8010E94D10A47EC54E0BC0139
:1028D000C8010E94AF0AAE014F5F5F4FBC01C80143
:1028E0000E94D10A4EEB54E0BC01C8010E94AF0A1D
:1028F0006C014AE0BE016F5F7F4F84E893E00E9465
:102900008017AE014F5F5F4FB601C8010E94D10A28
:1029100040EB54E0BC01C8010E94AF0A6C014AE0E0
:10292000BE016F5F7F4FF701808591850E94801700
:10293000AE014F5F5F4FB601C8010E94D10A44E863
:1029400054E0BC01C8010E94AF0AAE014F5F5F4F67
:10295000BC01C8010E94D10A4BE754E0BC01C80188
:102960000E94AF0A7C014AE0BE016F5F7F4F88E59D
:102970009BE10E948017AE014F5F5F4FB701C80116
:102980000E94D10A40E154E0BC01C8010E94AF0A94
:1029900026960FB6F894DEBF0FBECDBFDF91CF9164
:1029A0001F910F91FF90EF90DF90CF9008954F927D
:1029B0005F926F927F928F929F92AF92BF92CF92CF
:1029C000DF92EF92FF920F931F93CF93DF9300D08C
:1029D00000D01F92CDB7DEB74C0122E131E045E0D7
:1029E000BE016F5F7F4F0E941F118823D9F0CE0177
:1029F00001960E943810882309F477C0CE01019611
:102A00000E9434176C0185EFC81681E0D80608F0E3
:102A10006CC09601ADE7B0E00E94251744E00E942B
:102A2000FA045B0128E131E045E0BE016F5F7F4FB2
:102A3000C4010E941F118823D9F0CE0101960E9483
:102A40003810882309F453C0CE0101960E94341730
:102A50007C0189E5E8168BE1F80608F048C097018B
:102A6000ADE7B0E00E94251744E00E94FA043B0164
:102A70002EE131E045E0BE016F5F7F4FC4010E944F
:102A80001F118823C1F0CE0101960E9438108823BF
:102A900081F1CE0101960E9434178C01053883E044
:102AA000180738F59801A3EAB1E00E9425174BE01A
:102AB0000E94FA042B01B0922E07A0922D0770926B
:102AC000300760922F075092320740923107D09220
:102AD0003407C0923307F0923607E092350710931F
:102AE00038070093370780E005C081E003C082E02B
:102AF00001C083E00F900F900F900F900F90DF9127
:102B0000CF911F910F91FF90EF90DF90CF90BF90EA
:102B1000AF909F908F907F906F905F904F900895AF
:102B2000DF92EF92FF920F931F93CF93DF93EC010D
:102B3000D62EF42E0E946911BC01CE010E948A118A
:102B400041EF53E0BC01CE010E94AF0A20913B0748
:102B500030913C07EF2C0FEF1FEF48EE53E0BC0124
:102B6000CE010E948E114EE853E0BC01CE010E94BE
:102B7000AF0ABC01FF2019F04BE553E002C04FE063
:102B800053E0CE010E94AF0ADD2069F046EE52E02C
:102B9000BC01CE01DF91CF911F910F91FF90EF907B
:102BA000DF900C94AF0ADF91CF911F910F91FF90AE
:102BB000EF90DF90089580E090E020E030E061E069
:102BC00070E0AB01082E02C0440F551F0A94E2F7D3
:102BD000242B352B01968C30910599F730932B07D8
:102BE00020932A0710923A071092390708958F927E
:102BF0009F92AF92BF92CF92DF92EF92FF920F938C
:102C0000CF93DF93CDB7DEB762970FB6F894DEBFF0
:102C10000FBECDBF7C015B014A010E94691142E6F3
:102C200052E0BC01C7010E94AF0A6C010AE02EE22B
:102C300044E0B401CE0101960E94CD10AE014F5F79
:102C40005F4FB601C7010E94D10A4CE252E0BC01BD
:102C5000C7010E94AF0A6C0100E12EE246E0B50117
:102C6000CE0101960E94CD10AE014F5F5F4FB601BD
:102C7000C7010E94D10A41EC51E0BC01C7010E948A
:102C8000AF0A62960FB6F894DEBF0FBECDBFDF91DC
:102C9000CF910F91FF90EF90DF90CF90BF90AF90CA
:102CA0009F908F900895AF92BF92CF92DF92EF9254
:102CB000FF920F93CF93DF93CDB7DEB762970FB636
:102CC000F894DEBF0FBECDBF7C016B015A0126E236
:102CD00031E042E1BE016F5F7F4F0E941F11811101
:102CE0000DC029E231E042E1BE016F5F7F4FC701B5
:102CF0000E941F1181110DC091E017C004E02AE06D
:102D0000A5016EE2CE0101960E9443108111E9CF28
:102D10000BC006E020E1A6016EE2CE0101960E9402
:102D2000431091E0811101C090E0892F62960FB6A7
:102D3000F894DEBF0FBECDBFDF91CF910F91FF9012
:102D4000EF90DF90CF90BF90AF9008958F929F92B9
:102D5000AF92BF92CF92DF92EF92FF920F93CF93F9
:102D6000DF93CDB7DEB762970FB6F894DEBF0FBE24
:102D7000CDBF7C014B016A010E94691148E751E017
:102D8000BC01C7010E94AF0A5C010AE02EE244E0E8
:102D9000B601CE0101960E94CD10AE014F5F5F4F8C
:102DA000B501C7010E94D10A41E751E0BC01C7014A
:102DB0000E94AF0A5C0100E12EE246E0B401CE01C0
:102DC00001960E94CD10AE014F5F5F4FB501C70164
:102DD0000E94D10A4CE551E0BC01C7010E94AF0A34
:102DE0005C010AE02EE244E0B601CE0101960E94A9
:102DF000CD10AE014F5F5F4FB501C7010E94D10AF0
:102E00004FE451E0BC01C7010E94AF0A62960FB6C1
:102E1000F894DEBF0FBECDBFDF91CF910F91FF9031
:102E2000EF90DF90CF90BF90AF909F908F900895DC
:102E3000CF93DF93EC010E9469114AE051E0BC019D
:102E4000CE01DF91CF910C94AF0AA29FB001B39F46
:102E5000C001A39F700D811D1124911DB29F700DA3
:102E6000811D1124911D0895FC0188279927E8945C
:102E700021912032E9F3293010F02E30C8F32B32A3
:102E800041F02D3239F4689404C00E948B17820FF0
:102E9000911D219120532A30C0F31EF49095819505
:102EA0009F4F0895FB01DC014150504030F08D915F
:102EB0000590801919F40020B9F7881B990B089523
:102EC000FB01DC0101900D920020E1F70895FB0168
:102ED000DC014150504030F08D910190801919F47F
:102EE0000020B9F7881B990B08954532510520F44D
:102EF000423010F00C948017FB011082CB01089532
:102F0000BB274A3031F4992322F4BDE29095819594
:102F10009F4F0C9494177AE0979F902D879F802D58
:102F2000910D11240895BB27FB015527AA27880F6F
:102F3000991FAA1FA41710F0A41B83955051B9F72D
:102F4000A05DAA3308F0A95DA193009779F7B111AC
:102F5000B1931192CB010C94AD17DC01FC01672FEA
:102F600071917723E1F7329704C07C916D93708360
:102F70006291AE17BF07C8F30895DC01CB01FC01D5
:102F8000F999FECF06C0F2BDE1BDF89A319600B4C2
:102F90000D9241505040B8F70895F999FECF92BD77
:102FA00081BDF89A992780B50895A8E1B0E042E084
:102FB00050E00C94BF17DC01A40FB51F41505040E6
:102FC00048F0CB01840F951F2E910E94EC174150C1
:102FD0005040D0F70895262FF999FECF92BD81BDBC
:102FE000F89A019700B4021639F01FBA20BD0FB647
:102FF000F894FA9AF99A0FBE08950196272F0E9425
:0A300000EC170C94EB17F894FFCFC7
:10300A00500A4745542000636800706F730061637B
:10301A00740077696474680064656C61790063752B
:0E302A007272656E74006970006D6163000063
:00000001FF
